:04000000E2EF3FF0FC
:1073BC0012001200A49E1200729A1200A39E1200D8
:1073CC00718012007182120071841200010E120081
:1073DC00050E12007186120075501200A48E120058
:1073EC00000E1200718A71881200719A7188120055
:1073FD00286E756C6C2900016E01C075FF1200E8D6
:10740D00EC39F0010E1200E8EC39F0020E1200E832
:10741D00EC39F0010E1200EAEC39F0000E1200FB0F
:10742D00EC39F0050E1200F8EC39F00A0E1200F8E6
:10743D00EC39F0090E1200010EFEEC3CF0120000CA
:10744D000EFEEC3CF0120001C0E5F202C0E6F212B5
:10745D000001C0FDF002C0FEF0120001C0E7F20213
:10746D00C0E8F2120002012393000E226F0E0E12DD
:10747D000002012391F0EC39F0040E1200020123F9
:10748D0093000E226F0E0E120002012381D8801C74
:10749D003502EC3AF0050E1200020123811C511C3D
:1074AD002502EC3AF0030E1200A4AE60EF3AF06242
:1074BD00EF3AF05BEF3AF012006CEC3AF0DCEC3C9A
:1074CD00F076EC3AF07CEC3CF01200000E736E0896
:1074DD000E726E000E716E130E746E729A12007330
:1074ED000ED36E000E9B6E000E0F013D6F140E87B6
:1074FD006E120071BC85EF3AF088EF3AF0010E89FB
:10750D00EF3AF0000E1200016E9EA890EF3AF09245
:10751D00EF3AF08BEF3AF001C0AEFF120006C0015A
:10752D00F007C002F008C003F009C004F0000EA57A
:10753D00EC3FF01200186E15C010F016C011F017C8
:10754D00C012F0136A185064EC3DF012001E6E1B51
:10755D00C015F01CC016F01DC017F01E50A1EC3A5E
:10756D00F0000E120006C001F007C002F008C003C3
:10757D00F009C004F0020EA5EC3FF01200186E15D4
:10758D00C010F016C011F017C012F0136A18501A7F
:10759D00EC3EF012001E6E1BC015F01CC016F01D47
:1075AD00C017F01E50C5EC3AF0000E1200E3EF3A92
:1075BD00F05BEC3AF007EC3FF0020123B3E9EF3A50
:1075CD00F0EBEF3AF0DFEF3AF012003F6E280E339A
:1075DD006E020E346E3FC035F0400E366E000E3723
:1075ED006E5CEC52F04050120072BA00EF3BF002AC
:1075FD00EF3BF00BEF3BF0000E736E080E726E005A
:10760D000E716E130E746E728A1200020123A71290
:10761D00EF3BF014EF3BF01DEF3BF001C01DF2020C
:10762D00C01EF203C01FF204C020F2239712000106
:10763D00500302F3CF05F0F4CF06F001500402F32E
:10764D0050062602500302F350062605C001F0062F
:10765D00C002F01200010E016E020123B339EF3B9F
:10766D00F03BEF3BF045EF3BF023951C69E0EC3927
:10767D00F0E4EC39F0E2EC39F022C201F0015012E5
:10768D00000AC001F00BC002F0000E046E020E03E2
:10769D006E0CEC3BF0000E066E000E076E000E0831
:1076AD006E000E096E95EC3AF0040E12000AC00140
:1076BD00F00BC002F0000E046E010E036E0CEC3BDD
:1076CD00F0000E066E000E076E000E086E000E091D
:1076DD006E95EC3AF0020E12000AC001F00BC002DA
:1076ED00F0000E046E020E036E0CEC3BF0000E0665
:1076FD006E000E076E000E086E000E096E95EC3AC8
:10770D00F0020E12000AC001F00BC002F0000E04D0
:10771D006E010E036E0CEC3BF0000E066E000E07B4
:10772D006E000E086E000E096E95EC3AF0040E1206
:10773D0000346E280E266E020E276E34C028F033EC
:10774D00C029F04CEC5AF00001FA6FFA51D8B4B2DE
:10775D00EF3BF0B4EF3BF0B7EF3BF0FA51B8EF3B36
:10776D00F0000E1200C2EF3BF0030E056E980EE80E
:10777D002EFED7052EFCD70106000E025A035A0421
:10778D005A0150021003100410D8A4D0EF3BF0D2D0
:10779D00EF3BF0BBEF3BF0120001C003F002C00461
:1077AD00F0DBEF3BF0014A022A01C0D9FF02C0DA3B
:1077BD00FFDF50D8A4E5EF3BF0E7EF3BF0D9EF3B0F
:1077CD00F00350015C016E04500258026E1200016C
:1077DD0050021003100410D8B4F7EF3BF0F9EF3B53
:1077ED00F001EF3CF0000E011A000E021A000E031C
:1077FD001A800E041A01C001F002C002F003C0038A
:10780D00F004C004F01200BF0E036EFF0E046E01F3
:10781D00C005F002C006F0035005260450062206EE
:10782D00500AE11A0E055CD8A01FEF3CF022EF3C88
:10783D00F0010E23EF3CF0000E016E026A12009F64
:10784D000E036EFF0E046E01C005F002C006F003BC
:10785D005005260450062206500AE11A0E055CD882
:10786D00A03BEF3CF03EEF3CF0010E3FEF3CF00053
:10787D000E016E026A1200D00E036EFF0E046E0131
:10788D00C005F002C006F00350052604500622067E
:10789D00500AE10A0E055CD8A057EF3CF05AEF3CB8
:1078AD00F0010E5BEF3CF0000E016E026A12009FBC
:1078BD000E036EFF0E046E200E0110056E000E02FB
:1078CD0010066E035005260450062206500AE11AD2
:1078DD000E055CD8A075EF3CF078EF3CF0010E7909
:1078ED00EF3CF0000E016E026A1200080E7E6E90E3
:1078FD000EAC6E240EAD6E100EB06E000E7F6E00CF
:10790D000E016E000E026E2FEC3AF0000E016E00AD
:10791D000E026E34EC3AF0000E016E000E026E2A6D
:10792D00EC3AF0000E0001FC6F120020EE02F00A9E
:10793D0050D9260B50DA22DECF01F0DDCF02F00A4E
:10794D00C0D9FF0BC0DAFFDECF03F0DDCF04F00CA2
:10795D00EC3BF0000E066E000E076E000E086E007A
:10796D000E096E95EC3AF0020E120014BEC9EF3CF2
:10797D00F0145006E11304D8B0C7EF3CF0C9EF3C4A
:10798D00F0D7EF3CF013C015F014C016F0151E160D
:10799D001E154A162A15C013F016C014F0DBEF3C65
:1079AD00F013C013F014C014F01200000E8D6E0011
:1079BD000E8C6E000E896E000E8A6E000E8B6EC7D9
:1079CD000E966EEF0E926EDF0E936EBF0E946E9549
:1079DD0068000E0F01486F000E496FF18E968E965E
:1079ED008C000E426F000E416F000E406F12000EA4
:1079FD006E010E0F6E020123B307EF3DF009EF3D4F
:107A0D00F01EEF3DF02383000E0F6E0E50D8B41212
:107A1D00EF3DF014EF3DF018EF3DF0010E216F1A20
:107A2D00EF3DF0020E216FE6EC39F0DDEC3AF00F90
:107A3D00501200000E106E000E0F6E31EF3DF00E65
:107A4D00C001F0026A0CC003F00DC004F038EC4424
:107A5D00F00F4A102A0F500A24D96E10500B20DA5D
:107A6D006EDF500E6E0E50D8A43FEF3DF041EF3D4E
:107A7D00F026EF3DF012009F0E096EFF0E0A6E0705
:107A8D00C00BF008C00CF009500B260A500C220C4C
:107A9D005007E11A0E0B5CD8B057EF3DF059EF3D92
:107AAD00F05FEF3DF05F0E0714076E086A63EF3D60
:107ABD00F007C007F008C008F01200146E1450242F
:107ACD00EC41F00009D8B46EEF3DF070EF3DF0657C
:107ADD00EF3DF010C001F011C002F012C003F01321
:107AED00C004F00CEC3BF022EC3AF031EC3BF0E84A
:107AFD0006D8B484EF3DF086EF3DF07CEF3DF012FB
:107B0D0000000E361A000E371A000E381A800E3984
:107B1D001A32C001F033C002F034C003F035C00496
:107B2D00F036C005F037C006F038C007F039C00890
:107B3D00F094EC5CF001C032F002C033F003C034BD
:107B4D00F004C035F01200BF0E096EFF0E0A6E076D
:107B5D00C00BF008C00CF009500B260A500C220C7B
:107B6D005007E11A0E0B5CD8B0BFEF3DF0C1EF3DF1
:107B7D00F0C8EF3DF0200E0710076E0850086ECCD0
:107B8D00EF3DF007C007F008C008F01200000E0925
:107B9D006E000E086EDEEF3DF008500224D96E091E
:107BAD00500320DA6EDF508AEC3AF0084A092A04B5
:107BBD0050056E066A0550085C0950800A076E066E
:107BCD0050800A0758D8A0EEEF3DF0F0EF3DF0D30E
:107BDD00EF3DF01200010E076E200E01180210D8B5
:107BED00B4FBEF3DF0FDEF3DF016EF3EF0F70E0369
:107BFD006EFF0E046E01C005F002C006F0035005C5
:107C0D002604500622065009E1050E055CD8A01287
:107C1D00EF3EF014EF3EF016EF3EF0000E076E074C
:107C2D00C001F0026A1200146E145024EC41F000F1
:107C3D0009D8B424EF3EF026EF3EF01BEF3EF010D6
:107C4D00C001F011C002F012C003F013C004F00C1B
:107C5D00EC3BF0000E066E000E076E000E086E0077
:107C6D000E096EB9EC3AF026EC3AF031EC3BF0E847
:107C7D0006D8B444EF3EF046EF3EF03CEF3EF01236
:107C8D000003C007F004C008F001C009F002C00AEB
:107C9D00F00750056E0850066E074A082A05C0F613
:107CAD00FF06C0F7FFF86A09C0D9FF0AC0DAFF095D
:107CBD004A0A2A0E0EF76403D00800F55005D0F6D7
:107CCD00CFE9FFF7CFEAFFEF50DF6EDF50D8A47298
:107CDD00EF3EF074EF3EF04FEF3EF0120020EE0657
:107CED00F01F50D9262050DA2202D898EF3EF00529
:107CFD0000FA6EDE50FD6EDE50FE6EF850FF6EFA2D
:107D0D005021C019F01A6A22C01BF023C01CF024A8
:107D1D00C01DF020EE62F01F50D9262050DA22DF70
:107D2D005012000009D8B49EEF3EF0A0EF3EF0A334
:107D3D00EF3EF0010EA4EF3EF0000E120020EE0417
:107D4D00F01F50D9262050DA2202D8C9EF3EF00597
:107D5D0000FA6EDE50FD6EDE50FE6EF850FF6EFACC
:107D6D005021C019F022C01AF023C01BF024C01CF2
:107D7D00F025C01DF020EE62F01F50D9262050DAFC
:107D8D0022DF5012000009D8B4CFEF3EF0D1EF3E04
:107D9D00F0D4EF3EF0010ED5EF3EF0000E1200B420
:107DAD00C05AF0B5C05BF0000E0001EE6F000EED95
:107DBD006FF4EF3EF0B2C046F0B3C047F05A0E4834
:107DCD006E000E496EB6C04AF0B7C04BF06CEC6A4F
:107DDD00F046500001ED274750EE235AC0F6FF5BE9
:107DED00C0F7FF0800F5500009D8A400EF3FF002DE
:107DFD00EF3FF0E1EF3EF0EDC0B2F0EEC0B3F012A8
:107E0D0000E0EC39F0020123A10FEF3FF011EF3F3D
:107E1D00F01EEF3FF080EC3AF00009D8B419EF3FB7
:107E2D00F01BEF3FF01EEF3FF00F0E0201216F022E
:107E3D00012151020DBD0EF324F66EFC0EF420F758
:107E4D006E02D836EF3FF00500FA6E0900F550FDD1
:107E5D006E0900F550FE6EF850FF6EFA50120002DA
:107E6D0001216F120002012391020E226F47EF3F95
:107E7D00F00EEC3AF06EEF3FF012EC3AF06EEF3F91
:107E8D00F010C20AF011C20BF022EE04F002D85A23
:107E9D00EF3FF00500FA6EDE50FD6EDE50FE6EF81F
:107EAD0050FF6EFA5012000C6E0D6A0D50000AD87C
:107EBD00B463EF3FF043EF3FF00C50020AD8B43FEC
:107ECD00EF3FF0010AD8B43FEF3FF043EF3FF01220
:107EDD0000000E016E010E026E000E046E000E0308
:107EED006E010E066E000E056E01EC4BF0D60E0007
:107EFD0001DC6F000EDD6F000EB86F010EB96F0162
:107F0D000EBB6F000EBA6FD4C0BCF0D5C0BDF0DC97
:107F1D000EBE6F000EBF6F6DEC47F0000E016E01CF
:107F2D000E026ED3EC3BF001505C6E000E026E0142
:107F3D000E036E5CC004F0CDEC3DF01200056E0139
:107F4D00500210D8B4ADEF3FF0AFEF3FF0C9EF3FA7
:107F5D00F00550020D000EF324D96E020EF420DA56
:107F6D006E01C0DEFF02C0DDFF0550020D0C0EF3E9
:107F7D0024D96E020EF420DA6E03C0DEFF04C0DDDC
:107F8D00FFE1EF3FF00550020D000EF324D96E0214
:107F9D000EF420DA6ED80EDE6E730EDD6E05500215
:107FAD000D0C0EF324D96E020EF420DA6E000EDEE7
:107FBD006E000EDD6E1200BC0EF66E800EF76E00BA
:107FCD000EF86E03EE00F010EE80F00900F5CFEE26
:107FDD00FFE550E150FAE1FD0EF66E730EF76E00FF
:107FED000EF86E02EEDEF010EE07F00900F5CFEEA2
:107FFD00FFE550E150FAE104EE00F0660EEE6AE89E
:10800D0006FDE103EE80F0660EEE6AE806FDE10284
:10801D00EE00F0DE0EEE6AE806FDE100EEE9F0148A
:10802D000EEE6AE806FDE1000EF86E000120EF513C
:10803D00F00201238730EF40F00EEC3AF05DEF4097
:10804D00F0F4EC39F0030E5DEF40F012EC3AF05D18
:10805D00EF40F00CC20AF00DC20BF002D841EF4018
:10806D00F00500FA6E0051FD6E0151FE6EF850FFE5
:10807D006EFA5012000C6E0D6A0D50000AD8B44AFB
:10808D00EF40F02CEF40F00C50010AD8B42CEF402B
:10809D00F0030AD8B423EF40F0010AD8B423EF401F
:1080AD00F0070AD8B427EF40F02CEF40F012000192
:1080BD0000020004000800100020004000800000B5
:1080CD0001000200040008001000200040008001A3
:1080DD000002000400080010002000400080000095
:1080ED000100020004000800100020004000800183
:1080FD000002000400080010002000400080000075
:10810D000100020004000800100020004000800162
:10811D000002000400080010002000400080000054
:10812D000100020004000800100020004000800142
:10813D00500210D8A4A5EF40F0A7EF40F0AAEF40F1
:10814D00F0020EE0EF40F020EE65F00150D926026E
:10815D0050DA22DE04D8B4B6EF40F0B8EF40F0BBF1
:10816D00EF40F0030EE0EF40F020EE63F00150D948
:10817D00260250DA22DE04D8A4C7EF40F0C9EF4042
:10818D00F0CDEF40F0380E056ECFEF40F0200E052C
:10819D006E20EE62F00150D9260250DA2205C0DFC2
:1081AD00FF20EE62F00150D9260250DA220350DF93
:1081BD0012000E120001C007F002C008F003EF41DB
:1081CD00F00506D8A0060603C0F6FF04C0F7FF03AE
:1081DD004A042A07C0D9FF08C0DAFF074A082A084F
:1081ED0000F5CFDFFFDF50D8A4FFEF40F001EF41E6
:1081FD00F003EF41F016EF41F005500610D8A40A38
:10820D00EF41F00CEF41F0E7EF40F016EF41F007D2
:10821D00C0D9FF08C0DAFF000EDF6E074A082A0535
:10822D0006D8A00606052806E10628D8A421EF41A8
:10823D00F023EF41F00EEF41F01200016E010E023E
:10824D006E020123B52DEF41F02FEF41F069EF41A3
:10825D00F001C01CF22393238523910E0E216F0193
:10826D000E1B6FF40E1A6F2387D80E006F730E015D
:10827D006F000E0C6F000E0D6FD80E026F730E0394
:10828D006F000E0E6F000E0F6FD80E046F730E057C
:10829D006F000E106F000E116FD80E066F730E0764
:1082AD006F000E126F000E136FDC0E086F730E0948
:1082BD006F000E146F000E156FE0EC39F0FBEC3A09
:1082CD00F0000E026E0250120005500610D8A47276
:1082DD00EF41F074EF41F077EF41F0020EBAEF414C
:1082ED00F020EE65F00550D9260650DA22DE04D8CE
:1082FD00B483EF41F085EF41F088EF41F0030EBA02
:10830D00EF41F0030E07608EEF41F090EF41F092D8
:10831D00EF41F09FEF41F005C001F006C002F0B350
:10832D000E036EFE0E046EDEEC39F0040EBAEF4154
:10833D00F020EE63F00550D9260650DA2207C0DF93
:10834D00FF20EE63F00550D9260650DA220750DEE5
:10835D0018D8B4B4EF41F0B6EF41F0B9EF41F001E8
:10836D000EBAEF41F0000E120001500210D8A4C257
:10837D00EF41F0C4EF41F0C7EF41F0020E0DEF42B7
:10838D00F020EE0AF00150D9260250DA22DE50DE3E
:10839D0010D8A4D4EF41F0D6EF41F0D9EF41F0035E
:1083AD000E0DEF42F001C0D9FF02C0DAFFDE50DE44
:1083BD0010D8A4E4EF41F0E6EF41F0E8EF41F0D63C
:1083CD00EF41F001C0D9FF02C0DAFF02D8F9EF4149
:1083DD00F00500FA6EDE50FD6EDE50FE6EF850FFB9
:1083ED006EFA5012000009D8B4FFEF41F001EF42D0
:1083FD00F004EF42F0010E0DEF42F020EE65F001BA
:10840D0050D9260250DA22010EDF6E000E1200F254
:10841D00EC39F01DC2D9FF1EC2DAFFDF6E02011D5D
:10842D004B1E2B1F07D8A020071F512011D8B42297
:10843D00EF42F024EF42F029EF42F0FBEC39F0056A
:10844D000E61EF42F0238734EF42F01EEC3AF061FB
:10845D00EF42F01AEC3AF061EF42F00CC20AF00D67
:10846D00C20BF002D845EF42F00500FA6E0051FD47
:10847D006E0151FE6EF850FF6EFA5012000C6E0D2B
:10848D006A0D50000AD8B44EEF42F030EF42F00CB6
:10849D0050010AD8B430EF42F0030AD8B42CEF42A1
:1084AD00F0010AD8B42CEF42F0070AD8B430EF42ED
:1084BD00F030EF42F01200000E0114096E000E02B2
:1084CD00140A6E800E03140B6E7F0E04140C6E09CD
:1084DD00500A100B100C10D8A477EF42F079EF4230
:1084ED00F081EF42F0000E016E000E026E000E03E1
:1084FD006E000E046E000E0514096E000E06140AB1
:10850D006E800E07140B6E7F0E08140C6E09500A48
:10851D00100B100C10D8A496EF42F098EF42F0A07B
:10852D00EF42F0000E056E000E066E000E076E0097
:10853D000E086E055001180FE1065002180CE107E8
:10854D0050031809E108500418D8B4B0EF42F0B246
:10855D00EF42F0B5EF42F0D890B6EF42F0D880126E
:10856D0000000E066E02BEC0EF42F0BEEF42F0C636
:10857D00EF42F0016C021ED8B0022A010E066E0405
:10858D00BECDEF42F0CBEF42F0D1EF42F0036C04E1
:10859D001ED8B0042A03500410D8B4D8EF42F0DA34
:1085AD00EF42F0FEEF42F0010E056EE2EF42F0D821
:1085BD009003360436052A04AEE7EF42F0E9EF42A8
:1085CD00F0DEEF42F00350015C04500258D8A0F2E7
:1085DD00EF42F0F4EF42F0F8EF42F00350015E0489
:1085ED0050025AD89004320332052EE9EF42F006BC
:1085FD0050D8B404EF43F006EF43F00AEF43F00117
:10860D006C021ED8B0022A01C001F002C002F012A5
:10861D0000000E066E04BE18EF43F016EF43F01E79
:10862D00EF43F0036C041ED8B0042A010E066E024F
:10863D00BE25EF43F023EF43F02BEF43F0016C0227
:10864D001ED8B0022A010E061A000E086E000E0783
:10865D006E03500410D8B436EF43F038EF43F0609A
:10866D00EF43F0010E056E40EF43F0D89003360452
:10867D0036052A04AE45EF43F047EF43F03CEF4398
:10868D00F0D890073608360350015C04500258D8D4
:10869D00A053EF43F055EF43F05AEF43F003500171
:1086AD005E0450025A0780D89004320332052E47DB
:1086BD00EF43F00650D8B466EF43F068EF43F06C2B
:1086CD00EF43F0076C081ED8B0082A07C001F00868
:1086DD00C002F012000001F3A177EF43F079EF43F0
:1086ED00F083EF43F013C00AF014C00BF011C00C6F
:1086FD00F012C00DF020EC3DF016BE88EF43F08A6D
:10870D00EF43F090EF43F015C01AF016C01BF09434
:10871D00EF43F0000E1B6E000E1A6E000E196E0068
:10872D000E186EA6EF43F0000E026E200E016E11B4
:10873D00C003F012C004F038EC44F0184A192A1A9C
:10874D0050185C1950800A176E1B50800A1758D8A4
:10875D00A0B3EF43F0B5EF43F09AEF43F00001F310
:10876D00B1BBEF43F0BDEF43F0C7EF43F013C00AC9
:10877D00F014C00BF011C00CF012C00DF020EC3D48
:10878D00F013C001F014C002F0D3EC3BF01A50010D
:10879D0024116E1B500220126E120080EC3AF00074
:1087AD0009D8B4DCEF43F0DEEF43F01BEF44F0ECFF
:1087BD00EF43F006EC3AF037EF44F00AEC3AF037BD
:1087CD00EF44F012EC3AF037EF44F012C20AF01316
:1087DD00C20BF022EE06F002D8FFEF43F00500FACF
:1087ED006EDE50FD6EDE50FE6EF850FF6EFA5012CA
:1087FD00000C6E0D6A0D50000AD8B408EF44F0E875
:10880D00EF43F00C50010AD8B4E8EF43F0030AD857
:10881D00B4E0EF43F0010AD8B4E4EF43F0070AD80F
:10882D00B4E8EF43F0E8EF43F0020123911DC2D904
:10883D00FF1EC2DAFF1D4B1E2BDF5002EC3AF00279
:10884D00011F07D8A020071F512011D8A431EF44D4
:10885D00F033EF44F036EF44F0060E37EF44F003FB
:10886D000E120003500410D8B43FEF44F041EF4412
:10887D00F04AEF44F003500410D8A448EF44F04AF6
:10888D00EF44F04FEF44F00150DFEC39F09CEF4432
:10889D00F020EE09F00350D9260450DA22DE50DE26
:1088AD0010D8B45CEF44F05EEF44F079EF44F02063
:1088BD00EE09F00350D9260450DA2210EE03F0032E
:1088CD0050E1260450E222DE50E65CE650800A09B3
:1088DD006EDE50800A0958D8B077EF44F079EF4436
:1088ED00F09CEF44F020EE03F00350D9260450DA4B
:1088FD0022DECF05F0DDCF06F003C0D9FF04C0DACC
:10890D00FFDECF07F0DDCF08F005500724D96E0646
:10891D00500820DA6E01C0DFFF20EE03F00350D9BE
:10892D00260450DA22DE2A000EDD22120009500A3A
:10893D00100B100C100D100E100F101010D8B4AA33
:10894D00EF44F0ACEF44F0F4EF44F0010E116EBAC9
:10895D00EF44F0D89009360A360B360C360D360E2C
:10896D00360F361036112A10AEBFEF44F0C1EF446A
:10897D00F0B0EF44F00950015C0A5002580B50035F
:10898D00580C5004580D5005580E5006580F5007EE
:10899D005810500858D8A0D6EF44F0D8EF44F0E85E
:1089AD00EF44F00950015E0A50025A0B50035A0C65
:1089BD0050045A0D50055A0E50065A0F50075A10B2
:1089CD0050085AD89010320F320E320D320C320B35
:1089DD00320A320932112EC1EF44F001C001F0020A
:1089ED00C002F003C003F004C004F005C005F0069A
:1089FD00C006F007C007F008C008F012000001EF34
:108A0D0051F011D8A40DEF45F00FEF45F015EF45DE
:108A1D00F0EFC010F0F0C011F01BEF45F0FF0EEFBE
:108A2D0025106EFF0EF021116EF3A120EF45F022FF
:108A3D00EF45F02BEF45F00CC001F0026A0AC003C0
:108A4D00F00BC004F038EC44F011BE30EF45F032BD
:108A5D00EF45F034EF45F038EF45F0000E116E00A4
:108A6D000E106E000E0F6E000E0E6E4AEF45F000EA
:108A7D000E026E200E016E0AC003F00BC004F0381A
:108A8D00EC44F00E4A0F2A10500E5C0F50800A0D68
:108A9D006E1150800A0D58D8A057EF45F059EF458B
:108AAD00F03EEF45F00001F3B15FEF45F061EF45AA
:108ABD00F06AEF45F00CC001F0026A0AC003F00B3A
:108ACD00C004F038EC44F0010E0E240A6E000E0FB7
:108ADD00200B6E120020EE11F0070EDE6AE806FD87
:108AED00E209500A100B100C100D100E100F101083
:108AFD0010D8B484EF45F086EF45F0D8EF45F0017E
:108B0D000E196E94EF45F0D89009360A360B360CD7
:108B1D00360D360E360F361036192A10AE99EF4532
:108B2D00F09BEF45F08AEF45F0D8901136123613D1
:108B3D0036143615361636173618360950015C0AB6
:108B4D005002580B5003580C5004580D5005580E38
:108B5D005006580F50075810500858D8A0B9EF4577
:108B6D00F0BBEF45F0CCEF45F00950015E0A500225
:108B7D005A0B50035A0C50045A0D50055A0E5006FC
:108B8D005A0F50075A1050085A1180D89010320FB2
:108B9D00320E320D320C320B320A320932192E9B43
:108BAD00EF45F011C001F012C002F013C003F01434
:108BBD00C004F015C005F016C006F017C007F01878
:108BCD00C008F01200E9C00BF0EAC00CF0EBC00DCC
:108BDD00F0ECC00EF001C00BF002C00CF003C00DA4
:108BED00F004C00EF00BC005F00CC006F00DC00770
:108BFD00F00EC008F0180E09EF46F0D890083207B5
:108C0D003206320532E82E04EF46F00550096E0AA1
:108C1D006A09500A10D8A416EF46F018EF46F0383E
:108C2D00EF46F0D8900B34056E0C34066E0D3407FC
:108C3D006E0E34086E0550061007100810D8A42AC1
:108C4D00EF46F02CEF46F032EF46F0000E026E02CA
:108C5D000E016E67EF46F0000E026E030E016E6799
:108C6D00EF46F009280A10D8A43FEF46F041EF4631
:108C7D00F063EF46F00BC005F00CC006F00DC00719
:108C8D00F00EC008F0090ED89005360636073608E6
:108C9D0036E82E4AEF46F00550061007100810D89A
:108CAD00B45BEF46F05EEF46F0010E5FEF46F0006D
:108CBD000E016E026A67EF46F0000E026E040E01A1
:108CCD006E1200000E1A14226E000E1B14236E80FD
:108CDD000E1C14246E7F0E1D14256E22502310249D
:108CED00102510D8A47DEF46F07FEF46F087EF46B4
:108CFD00F0000E1A6E000E1B6E000E1C6E000E1D87
:108D0D006E000E1E14226E000E1F14236E800E2098
:108D1D0014246E7F0E2114256E225023102410254D
:108D2D0010D8A49CEF46F09EEF46F0A6EF46F0005B
:108D3D000E1E6E000E1F6E000E206E000E216E1D9B
:108D4D00AEABEF46F0ADEF46F0B6EF46F01A6C1B4A
:108D5D001ED8B01B2A1C1ED8B01C2A800E1D5621F1
:108D6D00AEBBEF46F0BDEF46F0C6EF46F01E6C1FF2
:108D7D001ED8B01F2A201ED8B0202A800E215600E2
:108D8D000E1A1A000E1B1A000E1C1A800E1D1A0048
:108D9D000E1E1A000E1F1A000E201A800E211A1E0A
:108DAD00501A5C1F501B5820501C5821501D58D86C
:108DBD00B0E3EF46F0E5EF46F0E8EF46F0D890E986
:108DCD00EF46F0D88012001C341D34236E2350D88A
:108DDD00A4F3EF46F0F5EF46F0FFEF46F0000E1A64
:108DED006E000E1B6E000E1C6E000E1D6E6CEF479E
:108DFD00F01AC01EF01BC01FF01CC020F01DC021BA
:108E0D00F0200E0FEF47F0D890213220321F321E86
:108E1D0032E82E0AEF47F01E50226E1C8EFF0E1AFE
:108E2D0016FF0E1B16FF0E1C16000E1D16960E239A
:108E3D005E23BE26EF47F024EF47F03CEF47F023CB
:108E4D0050800A970FD8B02EEF47F030EF47F03231
:108E5D00EF47F0F5EF46F0D8901D321C321B321A59
:108E6D0032233E32EF47F054EF47F01F0E2364429A
:108E7D00EF47F044EF47F04CEF47F0F5EF46F0D8F1
:108E8D00901A361B361C361D3623062350D8A45295
:108E9D00EF47F054EF47F046EF47F02250D8B45A61
:108EAD00EF47F05CEF47F064EF47F01D1E1C1E1BF3
:108EBD001E1A6C000E1B221C221D221AC01AF01B3A
:108ECD00C01BF01CC01CF01DC01DF01200800E0058
:108EDD0001BB5DD8A075EF47F077EF47F07DEF4709
:108EED00F0000EF66F4B0EF56FF2EF47F0B8C0C9FC
:108EFD00F0B9C0CAF0BB5109E1020EBA5DD8A08A23
:108F0D00EF47F08CEF47F098EF47F0FF0EBA25D200
:108F1D006FFF0EBB21D36F000ECD6F000ECC6FA077
:108F2D00EF47F0000ED36F010ED26F000ECD6F0123
:108F3D000ECC6FC90EB26F000EB36FBCC0B4F0BDD6
:108F4D00C0B5F0BEC0B6F0BFC0B7F0D6EC3EF0B2C3
:108F5D00C0C7F0B3C0C8F00001BA51BB11D8B4BA44
:108F6D00EF47F0BCEF47F0F2EF47F0C8BFC1EF4756
:108F7D00F0C3EF47F0F2EF47F0FF0EC06FFF0EC1E9
:108F8D006FBAC0C2F0BBC0C3F0C051C227C151C33C
:108F9D0023C251C75DC851800AC46FC351800AC432
:108FAD0059D8A0DCEF47F0DEEF47F0E6EF47F0FFD2
:108FBD000EBA25C56FFF0EBB21C66FEAEF47F0C78E
:108FCD00C0C5F0C8C0C6F0C551B825D96EC651B9D7
:108FDD0021DA6E000EDF6E120001C008F002C0092A
:108FED00F003C00AF004C00BF00506D8A006060574
:108FFD002806E10628D8A406EF48F008EF48F0153A
:10900D00EF48F0000E026E000E016E7FEF48F00883
:10901D004A092A0A4A0B2A0506D8A0060608C0F6F0
:10902D00FF09C0F7FFF86A0E0EF76403D00800F5CC
:10903D005005D0F6CFE9FFF7CFEAFFEF500009D882
:10904D00B42BEF48F02DEF48F063EF48F00AC0F66F
:10905D00FF0BC0F7FF0800F5500009D8B439EF48F1
:10906D00F03BEF48F063EF48F005500610D8B442DE
:10907D00EF48F044EF48F063EF48F00AC0F6FF0BFD
:10908D00C0F7FF0800F5CF07F008C0F6FF09C0F7DD
:10909D00FFF86A0E0EF76403D00800F55005D0F600
:1090AD00CFE9FFF7CFEAFFEF500718D8B461EF48CB
:1090BD00F063EF48F00EEF48F008C0F6FF09C0F777
:1090CD00FFF86A0E0EF76403D00800F55005D0F6D0
:1090DD00CFE9FFF7CFEAFFEF50076E0AC0F6FF0B9F
:1090ED00C0F7FF0800F550075C016E026AD8A002B8
:1090FD000612005D6E280E016E020E026E000E0449
:10910D006E000E036E000E066E660E056E01EC4BC4
:10911D00F0EC0E0201286F730E296F000E2A6F00FE
:10912D000E2B6FA20E2E6F750E2F6F5A0E2C6F75A4
:10913D000E2D6F720E306F770E316FDE0E326F7E29
:10914D000E336F000E346F000E356F280E016E0258
:10915D000E026EBBEC41F00001FA6F470ED46FFFAB
:10916D000ED56FFAC0D6F0D76B6FEC3FF00001FA59
:10917D0051D8B4C4EF48F0C6EF48F0CFEF48F0F047
:10918D000ED46FFE0ED56F6FEC3FF0010E0EEF4952
:10919D00F0280E056E020E066E5DC007F06BEC41F9
:1091AD00F00001FA6FFA51D8B4DFEF48F0E1EF4863
:1091BD00F0E9EF48F0E60ED46FFD0ED56F6FEC3F82
:1091CD00F0CCEF48F0280E016E020E026EDEC003E9
:1091DD00F09EEC40F00001FA6FFA51D8B4F9EF4867
:1091ED00F0FBEF48F003EF49F0840ED46FFE0ED57F
:1091FD006F6FEC3FF0CCEF48F00A0E016E000E02DF
:10920D006E000E036E000E046EB9EC3BF0000E12F4
:10921D00000E0E0924016E000E0A20026E4F0E0381
:10922D006EFF0E046E000E066E190E056EE1EC401B
:10923D00F0400E0924016E000E0A20026EA30E03EB
:10924D006EFF0E046E000E066E080E056EE1EC400C
:10925D00F0270E0924016E000E0A20026EA70E03E0
:10926D006EFF0E046E000E066E190E056EE1EC40DB
:10927D00F020EE4CF00950D9260A50DA22000EDE0D
:10928D006E000EDE6EC00EDE6E400EDD6E20EE4800
:10929D00F00950D9260A50DA22000EDE6E000EDEDD
:1092AD006E200EDE6E400EDD6E20EE50F00950D9B0
:1092BD00260A50DA22000EDE6E000EDE6EC80EDEBD
:1092CD006E420EDD6E20EE58F00950D9260A50DAA6
:1092DD0022000EDE6E000EDE6EAA0EDE6E420EDD7A
:1092ED006E20EE54F00950D9260A50DA22000EDE17
:1092FD006E000EDE6E200EDE6EC20EDD6E20EE5C9A
:10930D00F00950D9260A50DA22200EDF6E20EE5DCC
:10931D00F00950D9260A50DA22020EDF6E20EE5ED9
:10932D00F00950D9260A50DA22000EDE6E000EDE4C
:10933D006E7A0EDE6E440EDD6E1200000E116E00A2
:10934D000E106E000E0F6E000E0E6EB0EF49F0088F
:10935D004A092A08C0F6FF09C0F7FF0800F550209A
:10936D000AD8B4BCEF49F0BEEF49F0AEEF49F0F7C3
:10937D000E0A6EFF0E0B6E08C0F6FF09C0F7FF0850
:10938D0000F5500C6E0D6A0A500C260B500D220D77
:10939D005009E1050E0C5CD8A0D7EF49F0D9EF4983
:1093AD00F0AEEF49F0E3EF49F0000E0F6E010E0E37
:1093BD006E084A092A18EF4AF008C0F6FF09C0F7EF
:1093CD00FF0800F5500A6E0B6A0B50000AD8B4F274
:1093DD00EF49F018EF4AF00A502B0AD8B4DFEF49E5
:1093ED00F0060AD8B4DBEF49F018EF4AF010C001CF
:1093FD00F011C002F0000E046E0A0E036E1EEC3B5F
:10940D00F008C0F6FF09C0F7FF0800F550015E0037
:10941D000E025A300E0124106E000E0220116EDF66
:10942D00EF49F0D00E0A6EFF0E0B6E08C0F6FF0965
:10943D00C0F7FF0800F5500C6E0D6A0A500C260B94
:10944D00500D220D5009E10A0E0C5CD8A031EF4AE7
:10945D00F033EF4AF0FDEF49F00E500F10D8A43A5B
:10946D00EF4AF03CEF4AF04AEF4AF010C00AF01113
:10947D00C00BF00A1E0B1E0A4A0B2A0AC008F00B7D
:10948D00C009F04EEF4AF010C008F011C009F012FB
:10949D0000000E126E08BE58EF4AF056EF4AF06A01
:1094AD00EF4AF0081E071E061E051E041E031E02AF
:1094BD001E016C000E022203220422052206220741
:1094CD00220822010E126E10BE71EF4AF06FEF4AA4
:1094DD00F081EF4AF0101E0F1E0E1E0D1E0C1E0BFE
:1094ED001E0A1E096C000E0A220B220C220D220EE2
:1094FD00220F22102209500A100B100C100D100E05
:10950D00100F101010D8B48EEF4AF090EF4AF0D82B
:10951D00EF4AF0010E116E9EEF4AF0D89009360A0F
:10952D00360B360C360D360E360F361036112A1018
:10953D00AEA3EF4AF0A5EF4AF094EF4AF0095001BF
:10954D005C0A5002580B5003580C5004580D50052E
:10955D00580E5006580F50075810500858D8A0BA3A
:10956D00EF4AF0BCEF4AF0CCEF4AF00950015E0A29
:10957D0050025A0B50035A0C50045A0D50055A0EF6
:10958D0050065A0F50075A1050085AD89010320FE3
:10959D00320E320D320C320B320A320932112EA537
:1095AD00EF4AF01250D8B4DEEF4AF0E0EF4AF0F097
:1095BD00EF4AF0081E071E061E051E041E031E029E
:1095CD001E016C000E022203220422052206220730
:1095DD0022082201C001F002C002F003C003F00412
:1095ED00C004F005C005F006C006F007C007F0087E
:1095FD00C008F0120001C00BF002C00CF0055006BF
:10960D0010D8A40CEF4BF00EEF4BF010EF4BF0BB5E
:10961D00EF4BF00BC0D9FF0CC0DAFF03C0DFFF0525
:10962D00500B24076E06500C20086EFF0E0724D930
:10963D006EFF0E0820DA6E03C0DFFF065007E10350
:10964D000E055CD8B02DEF4BF02FEF4BF031EF4BFB
:10965D00F0BBEF4BF020EE01F00B50D9260C50DA99
:10966D002203C0DFFF20EE02F00B50D9260C50DA9A
:10967D002203C0DFFF05500B24076E06500C200897
:10968D006EFE0E0724D96EFF0E0820DA6E03C0DFC2
:10969D00FF05500B24076E06500C20086EFD0E07BB
:1096AD0024D96EFF0E0820DA6E03C0DFFF065007C7
:1096BD00E1070E055CD8B066EF4BF068EF4BF06A32
:1096CD00EF4BF0BBEF4BF020EE03F00B50D9260C17
:1096DD0050DA2203C0DFFF05500B24076E06500C35
:1096ED0020086EFC0E0724D96EFF0E0820DA6E03DB
:1096FD00C0DFFF065007E1090E055CD8B089EF4BBE
:10970D00F08BEF4BF08DEF4BF0BBEF4BF00BC00739
:10971D00F00CC008F0071E081E074A082A030E07A2
:10972D0014096E0A6A09500B260A500C22095005BD
:10973D005E0A50065AFC0E0516FF0E0616B2EF4BCA
:10974D00F00BC0D9FF0CC0DAFF03C0DFFF0506D850
:10975D00A006060B4A0C2A05500610D8A4B9EF4BEB
:10976D00F0BBEF4BF0A7EF4BF0120022EEDEF01046
:10977D00EE0FF0060EDBCFE3FFE806FCE20CC01A9D
:10978D00F00DC01BF01A501B10D8A4D0EF4BF0D227
:10979D00EF4BF0D6EF4BF00F0E1A6E000E1B6E1A3C
:1097AD00C001F01BC002F0D3EC3BF001C01EF00273
:1097BD00C01FF0F1C01CF0F2C01DF01DBEE9EF4B53
:1097CD00F0EBEF4BF000EF4CF01E501C5C1D508089
:1097DD000A0E6E1F50800A0E58D8A0F8EF4BF0FA03
:1097ED00EF4BF0FCEF4BF000EF4CF01CC01EF01DEA
:1097FD00C01FF01EC01CF01FC01DF0EFC018F0F010
:10980D00C019F00001F3B10EEF4CF010EF4CF02D3C
:10981D00EF4CF01EEF4CF0000E026E200E016E0AA2
:10982D00C003F00BC004F038EC44F01E4A1F2A1898
:10983D00501E5C1F50800A0E6E1950800A0E58D8AB
:10984D00A02BEF4CF02DEF4CF012EF4CF0000E175B
:10985D006E000E166E46EF4CF01AC0D9FF1BC0DA23
:10986D00FFDF500E6E0E50016E026A0AC003F00B40
:10987D00C004F038EC44F01A4A1B2A164A172A1C69
:10988D0050165C1750800A0E6E1D50800A0E58D867
:10989D00A053EF4CF055EF4CF033EF4CF00001F3CB
:1098AD00A15BEF4CF05DEF4CF07AEF4CF06BEF4CB1
:1098BD00F0000E026E200E016E0AC003F00BC00404
:1098CD00F038EC44F01E4A1F2A18501E5C1F5080C1
:1098DD000A0E6E1950800A0E58D8A078EF4CF07A07
:1098ED00EF4CF05FEF4CF01EC00AF01FC00BF012F2
:1098FD0000000E126E10BE88EF4CF086EF4CF09A01
:10990D00EF4CF0101E0F1E0E1E0D1E0C1E0B1E0A10
:10991D001E096C000E0A220B220C220D220E220FA4
:10992D00221022010E126E08BEA1EF4CF09FEF4CDB
:10993D00F0B3EF4CF0081E071E061E051E041E0395
:10994D001E021E016C000E022203220422052206B5
:10995D002207220822010E121A20EE13F0070EDE46
:10996D006AE806FDE209500A100B100C100D100EDE
:10997D00100F101010D8B4C6EF4CF0C8EF4CF01A01
:10998D00EF4DF0010E116ED6EF4CF0D89009360A5E
:10999D00360B360C360D360E360F361036112A10A4
:1099AD00AEDBEF4CF0DDEF4CF0CCEF4CF0D890137C
:1099BD00361436153616361736183619361A360940
:1099CD0050015C0A5002580B5003580C5004580DAE
:1099DD005005580E5006580F50075810500858D8BB
:1099ED00A0FBEF4CF0FDEF4CF00EEF4DF0095001E8
:1099FD005E0A50025A0B50035A0C50045A0D500572
:109A0D005A0E50065A0F50075A1050085A1380D844
:109A1D009010320F320E320D320C320B320A3209E7
:109A2D0032112EDDEF4CF01250D8B420EF4DF02254
:109A3D00EF4DF032EF4DF01A1E191E181E171E169F
:109A4D001E151E141E136C000E142215221622173D
:109A5D0022182219221A2213C001F014C002F01587
:109A6D00C003F016C004F017C005F018C006F019B9
:109A7D00C007F01AC008F012002C6E2C50D8B44A52
:109A8D00EF4DF04CEF4DF06EEF4DF027BE53EF4D17
:109A9D00F051EF4DF06EEF4DF024C028F025C029A8
:109AAD00F026C02AF027C02BF0281E291E2A1E2BB7
:109ABD001E282A000E29222A222B2228C02EF02908
:109ACD00C02FF02AC030F02BC031F076EF4DF024CE
:109ADD00C02EF025C02FF026C030F027C031F02465
:109AED0050251026102710D8A47FEF4DF081EF4D93
:109AFD00F08BEF4DF0000E246E000E256E000E263D
:109B0D006E000E276E1CEF4EF0960E2D6E95EF4DDE
:109B1D00F02D2AD890313230322F322E32000E2EC7
:109B2D0014286E000E2F14296E000E30142A6EFEAE
:109B3D000E31142B6E285029102A102B10D8A4AAE0
:109B4D00EF4DF0ACEF4DF08FEF4DF0BAEF4DF02D36
:109B5D002A010E2E26000E2F2230223122D89031CE
:109B6D003230322F322E32000E2E14286E000E2F70
:109B7D0014296E000E30142A6EFF0E31142B6E2830
:109B8D005029102A102B10D8A4CFEF4DF0D1EF4D46
:109B9D00F0AEEF4DF0D9EF4DF02D06D8902E362FBB
:109BAD00363036313630BEDEEF4DF0E0EF4DF0E8B9
:109BBD00EF4DF0020E2D60E6EF4DF0E8EF4DF0D3D6
:109BCD00EF4DF02DB0EDEF4DF0EFEF4DF0F0EF4D1F
:109BDD00F0309ED8902D322DC028F0296A2A6A2B9C
:109BED006A28C02BF02A6A296A286A28502E122961
:109BFD00502F122A5030122B5031122C50D8B40A3B
:109C0D00EF4EF00CEF4EF014EF4EF027BE13EF4E6B
:109C1D00F011EF4EF014EF4EF0318E2EC024F02FD8
:109C2D00C025F030C026F031C027F012000001F23F
:109C3D00BF23EF4EF025EF4EF026EF4EF0F393F2EB
:109C4D00BF33EF4EF0F25106E1F105D8B031EF4ED2
:109C5D00F033EF4EF039EF4EF0000E2F6E010E2E59
:109C6D006E3DEF4EF0F1C02EF0F2C02FF0EFC0328E
:109C7D00F0F0C033F01EC034F01FC035F020C036F8
:109C8D00F021C037F022C038F023C039F024C03A9B
:109C9D00F025C03BF0000E3D6E4F0E3C6E000E02E7
:109CAD0001DD6F000E316E000E306EA3EF4EF03CF5
:109CBD0006D8A03D06070E3414306E316A8E0E3C68
:109CCD0024D96E020E3D20DA6E3050300FDF6E2E2D
:109CDD0006D8A02F063206D8A0330634C026F0359C
:109CED00C027F036C028F037C029F038C02AF03927
:109CFD00C02BF03AC02CF03BC02DF0040E90EF4E6F
:109D0D00F0D8902D322C322B322A3229322832279C
:109D1D00322632E82E87EF4EF026C034F027C035BC
:109D2D00F028C036F029C037F02AC038F02BC039E2
:109D3D00F02CC03AF02DC03BF03DBEAEEF4EF03DE5
:109D4D005008E13C04D8A0AEEF4EF0B0EF4EF0E17C
:109D5D00EF4EF03450351036103710381039103AA8
:109D6D00103B10D8A4BDEF4EF0BFEF4EF05EEF4E9E
:109D7D00F02FBECCEF4EF02F5006E12E04D8B0CA16
:109D8D00EF4EF0CCEF4EF05EEF4EF033BED7EF4E10
:109D9D00F0335008E13204D8A0D7EF4EF0D9EF4E92
:109DAD00F0E1EF4EF00001F3B3DFEF4EF0E1EF4ED7
:109DBD00F05EEF4EF00001F3A9E7EF4EF0E9EF4E44
:109DCD00F000EF4FF030503110D8B4F0EF4EF0F20C
:109DDD00EF4EF000EF4FF03C06D8A03D068E0E3C46
:109DED0024D96E020E3D20DA6E300EDF6E3206D8AB
:109DFD00A033061CC011F01DC012F08E0E3C2413B2
:109E0D006E020E3D20146E32C015F033C016F07187
:109E1D00EC43F011C01CF012C01DF012000001F255
:109E2D00BF1BEF4FF01DEF4FF01EEF4FF0F393F20E
:109E3D00BF2BEF4FF0F25106E1F105D8B029EF4FEE
:109E4D00F02BEF4FF031EF4FF0000E2F6E010E2E75
:109E5D006E35EF4FF0F1C02EF0F2C02FF0EFC030A5
:109E6D00F0F0C031F01EC032F01FC033F020C0340E
:109E7D00F021C035F022C036F023C037F024C038B1
:109E8D00F025C039F0000E3B6E4F0E3A6E000E02FB
:109E9D0001DD6FC8EF4FF03A06D8A03B068E0E3AA3
:109EAD0024D96E020E3B20DA6E32C001F033C002AF
:109EBD00F034C003F035C004F036C005F037C006ED
:109ECD00F038C007F039C008F00A0E096E000E0A0E
:109EDD006E000E0B6E000E0C6E000E0D6E000E0E53
:109EED006E000E0F6E000E106E9DEC44F001C0263C
:109EFD00F002C027F003C028F004C029F005C02AE5
:109F0D00F006C02BF007C02CF008C02DF026503005
:109F1D000FDF6E2E06D8A02F063006D8A0310632E0
:109F2D00C001F033C002F034C003F035C004F03688
:109F3D00C005F037C006F038C007F039C008F00A88
:109F4D000E096E000E0A6E000E0B6E000E0C6E00EA
:109F5D000E0D6E000E0E6E000E0F6E000E106E7159
:109F6D00EC45F001C032F002C033F003C034F00410
:109F7D00C035F005C036F006C037F007C038F00820
:109F8D00C039F03A503B10D8B4CFEF4FF0D1EF4F6E
:109F9D00F002EF50F03250331034103510361037C8
:109FAD001038103910D8A4DEEF4FF0E0EF4FF0521B
:109FBD00EF4FF02FBEEDEF4FF02F5006E12E04D8EE
:109FCD00B0EBEF4FF0EDEF4FF052EF4FF031BEF839
:109FDD00EF4FF0315008E13004D8A0F8EF4FF0FA10
:109FED00EF4FF002EF50F00001F3B300EF50F0022D
:109FFD00EF50F052EF4FF01CC011F01DC012F08E5B
:10A00D000E3A24136E020E3B20146E30C015F03143
:10A01D00C016F071EC43F011C01CF012C01DF0120F
:10A02D000024C22AF025C22BF026C22CF027C22D07
:10A03D00F01AC02AF01BC02BF01CC02CF01DC02D37
:10A04D00F0810E1E6EFF0E1F6E2AC020F02BC02158
:10A05D00F02CC022F02DC023F0180E3BEF50F0D89D
:10A06D00902332223221322032E82E36EF50F0206A
:10A07D00501E24286E000E1F20296E29BE50EF5051
:10A08D00F0295009E1170E285CD8A050EF50F0527E
:10A09D00EF50F05CEF50F01AC01AF01BC01BF01C13
:10A0AD00C01CF01DC01DF01FEF51F029BE61EF5017
:10A0BD00F063EF50F0D3EF50F028C01EF0FF0E1FED
:10A0CD006EFF0E206E7F0E216E000E226E1E6672CA
:10A0DD00EF50F07AEF50F022342232213220321F2D
:10A0ED00321E2E6DEF50F01FC024F020C025F02140
:10A0FD00C026F022C027F024502A141E6E25502BA6
:10A10D00141F6E26502C14206E27502D14216E1EF8
:10A11D00501F1020102110D8A497EF50F099EF5038
:10A12D00F09BEF50F052EF50F02AC01EF02BC01FE5
:10A13D00F02CC020F02DC021F0200EABEF50F0D848
:10A14D0090213220321F321E32E82EA6EF50F01E23
:10A15D00501F1020102110D8B4B7EF50F0B9EF50A8
:10A16D00F0C1EF50F024502A2625502B2226502CDA
:10A17D002227502D22241C1E6E251C1F6E261C20EE
:10A18D006E271C216E1E502A161F502B1620502C88
:10A19D001621502D1617EF51F02AC01EF02BC01F9F
:10A1AD00F02CC020F02DC021F0200EE3EF50F0D8A0
:10A1BD0090213220321F321E32E82EDEEF50F01E7B
:10A1CD00501F1020102110D8A4EFEF50F0F1EF50D8
:10A1DD00F0FBEF50F0000E2A6E000E2B6E000E2CD1
:10A1ED006E000E2D6E17EF51F0D8902A341E6E2B87
:10A1FD00341F6E2C34206E2D34216E1E501F1020F6
:10A20D00102110D8B40DEF51F00FEF51F017EF51A1
:10A21D00F0000E2A6E000E2B6E800E2C6EBF0E2DD2
:10A22D006E2AC01AF02BC01BF02CC01CF02DC01DC7
:10A23D00F0120063EC3AF0000E0001DE6F020E80AA
:10A24D00EC48F00001FF6F390ED46FFF0ED56FFF94
:10A25D00C0D6F0D76B6FEC3FF0800E096E030E0A7F
:10A26D006E0FEC49F0280E0001D46FFF0ED56F8EE6
:10A27D000ED66F030ED76F6FEC3FF0C80E0001D4F2
:10A28D006FFE0ED56FA70ED66F030ED76F6FEC3F17
:10A29D00F0370E0001D46FFE0ED56FC00ED66F03D2
:10A2AD000ED76F6FEC3FF0CB0E0001D46FFD0ED5C6
:10A2BD006FCCC3D6F0CDC3D7F0CEC3D8F0CFC3D9B2
:10A2CD00F06FEC3FF0B00E0001D46FFD0ED56FC8EE
:10A2DD00C3D6F0C9C3D7F0CAC3D8F0CBC3D9F06F7A
:10A2ED00EC3FF0790E0001D46FFD0ED56FD0C3D6C3
:10A2FD00F0D1C3D7F0D2C3D8F0D3C3D9F06FEC3FB0
:10A30D00F0950E0001D46FFD0ED56FD8C3D6F0D9E0
:10A31D00C3D7F0DAC3D8F0DBC3D9F06FEC3FF00050
:10A32D000E056E000E066EC80E076E420E086EDE2E
:10A33D00C301F0DFC302F0E0C303F0E1C304F06A30
:10A34D00EC56F001C01AF002C01BF003C01CF00463
:10A35D00C01DF0EAEC46F01A50640DF3CF5EF0F438
:10A36D00CF5FF05EC024F05FC025F0000E25BEFF6C
:10A37D000E266E276E010E43EC4DF024C036F025EF
:10A38D00C037F026C038F027C039F0DEC332F0DF19
:10A39D00C333F0E0C334F0E1C335F087EC3DF03268
:10A3AD00C0DFF033C0E0F034C0E1F035C0E2F0DEE4
:10A3BD00C301F0DFC302F0E0C303F0E1C304F0001A
:10A3CD000E056E000E066E7A0E076E440E086E6A4E
:10A3DD00EC56F001C0E3F002C0E4F003C0E5F00478
:10A3ED00C0E6F0DFC01AF0E0C01BF0E1C01CF0E2E7
:10A3FD00C01DF0EAEC46F01A500001E76FE86B3E25
:10A40D000ED46FFD0ED56FE3C0D6F0E4C0D7F0E5E6
:10A41D00C0D8F0E6C0D9F0E7C0DAF0E8C0DBF06FE5
:10A42D00EC3FF0FE0E0001D46FFC0ED56FDCC3D6F1
:10A43D00F0D76B6FEC3FF05C0E0001D46FFD0ED5C5
:10A44D006FDDC3D6F0D76B6FEC3FF0030EECEC3A3B
:10A45D00F00009D8A435EF52F037EF52F053EF5218
:10A46D00F00A0E016E000E026E000E036E000E0459
:10A47D006EB9EC3BF0030EECEC3AF00009D8A44AAF
:10A48D00EF52F04CEF52F02CEF52F0010E336E0004
:10A49D000E9FEC3BF02CEF52F0000E336E000E9F32
:10A4AD00EC3BF02CEF52F000EF00F03D0E016E0092
:10A4BD000E026E000E046E000E036E000E066E028E
:10A4CD000E056E01EC4BF033503410D8A471EF52E1
:10A4DD00F073EF52F075EF52F0A4EF53F020EE65EC
:10A4ED00F03350D9263450DA22DE04D8B481EF523D
:10A4FD00F083EF52F085EF52F0A4EF53F0120E35CA
:10A50D00608BEF52F08DEF52F0A4EF53F033C02675
:10A51D00F034C027F035C028F0010E296E4CEC5AEE
:10A52D00F00001FB6FFB51D8B49FEF52F0A1EF5239
:10A53D00F085EF53F033C001F034C002F09C0E03F0
:10A54D006EFE0E046EDEEC39F0A4EF53F033C01F37
:10A55D00F034C020F0000E226E000E216E3D0E2351
:10A56D006E000E246E020E256EA5EC3EF00001FB72
:10A57D006FFB51D8B4C5EF52F0C7EF52F0D3EF5285
:10A58D00F033C001F034C002F0030E036EFF0E0471
:10A59D006EDEEC39F0A4EF53F03D503EC038F0398B
:10A5AD006A38C039F0386A38103B6E39503C6E0746
:10A5BD000E3564E4EF52F0E6EF52F0E9EF52F0356C
:10A5CD0050FE0F356E35C038F03550020D600EF36C
:10A5DD0024D96E030EF420DA6EDECF39F0DDCF3ADA
:10A5ED00F03B5039163C503A16382A01EF53F0D84B
:10A5FD00903A323932382EFEEF52F0395036C0D9FA
:10A60D00FF37C0DAFFDF6EA4EF53F0070E3564128B
:10A61D00EF53F014EF53F020EF53F033C001F0344B
:10A62D00C002F0510E036EFE0E046EDEEC39F0A486
:10A63D00EF53F033C01FF034C020F0000E226E0037
:10A64D000E216E3D0E236E000E246E010E256EA59D
:10A65D00EC3EF00001FB6FFB51D8B438EF53F03AEC
:10A66D00EF53F046EF53F033C001F034C002F00366
:10A67D000E036EFF0E046EDEEC39F0A4EF53F03DC9
:10A68D00C03BF03C6AE9EF52F0070E356451EF53D1
:10A69D00F053EF53F05FEF53F033C001F034C002CD
:10A6AD00F0510E036EFE0E046EDEEC39F0A4EF5386
:10A6BD00F033C01FF034C020F0000E226E000E21CA
:10A6CD006E3D0E236E000E246E010E256EA5EC3E22
:10A6DD00F00001FB6FFB51D8B477EF53F079EF53D6
:10A6ED00F046EF53F033C001F034C002F0030E0317
:10A6FD006EFF0E046EDEEC39F0A4EF53F020EE6326
:10A70D00F03350D9263450DA22DF50386E396A3999
:10A71D0050000AD8B495EF53F0A4EF53F038500021
:10A72D000AD8B44BEF53F0010AD8B40CEF53F00331
:10A73D000AD8B4ADEF52F0A4EF53F012000001F2BD
:10A74D00BFABEF53F0ADEF53F0AEEF53F0F393F229
:10A75D00BFBBEF53F0F25106E1F105D8B0B9EF539D
:10A76D00F0BBEF53F0C1EF53F0000E306E010E2F22
:10A77D006EC5EF53F0F1C02FF0F2C030F0EFC031E5
:10A78D00F0F0C032F0F3A9CEEF53F0D0EF53F0D488
:10A79D00EF53F0FE0E3126FF0E32221EC033F01F96
:10A7AD00C034F020C035F021C036F022C037F02380
:10A7BD00C038F024C039F025C03AF0000E3C6E4F81
:10A7CD000E3B6E000E0201DD6F86EF54F03B06D896
:10A7DD00A03C060F0E33143D6E3E6A3EBE00EF5494
:10A7ED00F03E5009E10A0E3D5CD8A000EF54F00296
:10A7FD00EF54F00AEF54F0570E3D243D6E000E3E1F
:10A80D00203E6E10EF54F0300E3D243D6E000E3E96
:10A81D00203E6EBF0E276EFF0E286E2650296E2A23
:10A82D006A2750292628502A222A5007E11A0E2974
:10A83D005CD8B024EF54F026EF54F049EF54F09F5C
:10A84D000E276EFF0E286E200E3D10296E000E3E57
:10A85D00102A6E2750292628502A222A5007E11A3D
:10A86D000E295CD8B03DEF54F03FEF54F049EF5452
:10A87D00F03DC007F03EC008F042EC3DF007C03D92
:10A88D00F008C03EF08E0E3B24D96E020E3C20DA4D
:10A89D006E3DC0DFFF2F06D8A030063106D8A0329E
:10A8AD000633C027F034C028F035C029F036C02A51
:10A8BD00F037C02BF038C02CF039C02DF03AC02E37
:10A8CD00F0050E73EF54F0D8902E322D322C322B22
:10A8DD00322A32293228322732E82E6AEF54F027F5
:10A8ED00C033F028C034F029C035F02AC036F02B23
:10A8FD00C037F02CC038F02DC039F02EC03AF03CE6
:10A90D00BE92EF54F03C5009E1020E3B5CD8A09290
:10A91D00EF54F094EF54F0C5EF54F033503410353C
:10A92D001036103710381039103A10D8A4A1EF5442
:10A93D00F0A3EF54F0EDEF53F030BEB0EF54F03024
:10A94D005006E12F04D8B0AEEF54F0B0EF54F0ED57
:10A95D00EF53F032BEBBEF54F0325008E13104D862
:10A96D00A0BBEF54F0BDEF54F0C5EF54F00001F370
:10A97D00B3C3EF54F0C5EF54F0EDEF53F00001F316
:10A98D00A9CBEF54F0CDEF54F0E3EF54F03B06D8E4
:10A99D00A03C068E0E3B24D96E020E3C20DA6E26AC
:10A9AD00C0DFFF3B06D8A03C068E0E3B24D96E02BD
:10A9BD000E3C20DA6E300EDF6E1CC011F01DC01281
:10A9CD00F08E0E3B24136E020E3C20146E31C0151A
:10A9DD00F032C016F071EC43F011C01CF012C01D26
:10A9ED00F012001EC036F01FC037F020C038F02125
:10A9FD00C039F022C03AF023C03BF024C03CF02512
:10AA0D00C03DF03DBE0DEF55F010EF55F0010E11AC
:10AA1D00EF55F0000E346E356A34503510D8B41A37
:10AA2D00EF55F01CEF55F02CEF55F03D1E3C1E3B45
:10AA3D001E3A1E391E381E371E366C000E37223850
:10AA4D002239223A223B223C223D220001F2BF3222
:10AA5D00EF55F034EF55F035EF55F0F393F2BF426B
:10AA6D00EF55F0F25106E1F105D8B040EF55F04247
:10AA7D00EF55F048EF55F0000E316E010E306E4C73
:10AA8D00EF55F0F1C030F0F2C031F0EFC032F0F020
:10AA9D00C033F034503510D8A457EF55F059EF5559
:10AAAD00F060EF55F0F3A55EEF55F060EF55F063F4
:10AABD00EF55F03206D8A03306000E3F6E4F0E3E16
:10AACD006E000E0201DD6FE8EF55F03E06D8A03F97
:10AADD00068E0E3E24D96E020E3F20DA6E36C00170
:10AAED00F037C002F038C003F039C004F03AC005A9
:10AAFD00F03BC006F03CC007F03DC008F00A0E095F
:10AB0D006E000E0A6E000E0B6E000E0C6E000E0D1A
:10AB1D006E000E0E6E000E0F6E000E106E4FEC4A94
:10AB2D00F001C026F002C027F003C028F004C029B0
:10AB3D00F005C02AF006C02BF007C02CF008C02D80
:10AB4D00F026C013F028C014F0BCEC3CF0135030CC
:10AB5D000FDF6E3006D8A031063206D8A033063688
:10AB6D00C001F037C002F038C003F039C004F03A2C
:10AB7D00C005F03BC006F03CC007F03DC008F00A30
:10AB8D000E096E000E0A6E000E0B6E000E0C6E009E
:10AB9D000E0D6E000E0E6E000E0F6E000E106E7FFF
:10ABAD00EC4CF001C036F002C037F003C038F004B1
:10ABBD00C039F005C03AF006C03BF007C03CF008C4
:10ABCD00C03DF03FBEF3EF55F03F5008E13E04D8D5
:10ABDD00A0F3EF55F0F5EF55F026EF56F036503760
:10ABED0010381039103A103B103C103D10D8A4020B
:10ABFD00EF56F004EF56F06CEF55F031BE11EF56F5
:10AC0D00F0315006E13004D8B00FEF56F011EF5689
:10AC1D00F06CEF55F033BE1CEF56F0335008E132B7
:10AC2D0004D8A01CEF56F01EEF56F026EF56F0009C
:10AC3D0001F3B324EF56F026EF56F06CEF55F034D8
:10AC4D00503510D8A42DEF56F02FEF56F037EF56A4
:10AC5D00F00001F3A535EF56F037EF56F055EF56EE
:10AC6D00F03E06D8A03F0634503510D8A441EF561B
:10AC7D00F043EF56F049EF56F0000E2F6E2B0E2ECF
:10AC8D006E4DEF56F0000E2F6E2D0E2E6E8E0E3E6B
:10AC9D0024D96E020E3F20DA6E2EC0DFFF1CC011CC
:10ACAD00F01DC012F08E0E3E24136E020E3F2014C6
:10ACBD006E32C015F033C016F071EC43F011C01CAC
:10ACCD00F012C01DF012000450800B116E045004E0
:10ACDD0024186E03AE75EF56F077EF56F078EF56F9
:10ACED00F018801850D8B47EEF56F080EF56F095DE
:10ACFD00EF56F01828D8A486EF56F088EF56F0904E
:10AD0D00EF56F0000E016E000E026E000E036E0087
:10AD1D000E046E038E000E046E9DEF56F0000E01B4
:10AD2D006E000E026E000E036E000E046E08508053
:10AD3D000B111A08500824196E07AEA8EF56F0AA89
:10AD4D00EF56F0ABEF56F019801950D8B4B1EF565D
:10AD5D00F0B3EF56F0C8EF56F01928D8A4B9EF5656
:10AD6D00F0BBEF56F0C3EF56F0000E056E000E0669
:10AD7D006E000E076E000E086E078E000E086ED068
:10AD8D00EF56F0000E056E000E066E000E076E00FB
:10AD9D000E086E0550061007100810D8A4D9EF56EE
:10ADAD00F0DBEF56F0F3EF56F0000E016E000E02E1
:10ADBD006E000E036E000E046E800E03127F0E04E5
:10ADCD00121150041201C001F002C002F003C003C1
:10ADDD00F004C004F036EF58F01850D8A4F9EF562F
:10ADED00F0FBEF56F005EF57F0000E016E000E026E
:10ADFD006E000E036E000E046E36EF58F0195018EB
:10AE0D00C009F00A6A095E000E0A5A7F0E09241263
:10AE1D006E000E0A20136E01C00DF002C00EF0037D
:10AE2D00C00FF004C010F0000E016E000E026E0097
:10AE3D000E036E000E046E000E146E000E156E00E5
:10AE4D000E166E000E176E000E196E66EF57F01986
:10AE5D0050D8B434EF57F036EF57F04DEF57F0D8D8
:10AE6D00900D360E360F361036D890013602360359
:10AE7D0036043617AE45EF57F047EF57F048EF570A
:10AE8D00F00180D890143615361636173605500D4C
:10AE9D005C06500E5807500F5808501058D8A05A3D
:10AEAD00EF57F05CEF57F065EF57F0178C05500D2D
:10AEBD005E06500E5A07500F5A0850105A192A198B
:10AECD000E19646CEF57F06EEF57F02EEF57F00D33
:10AEDD00500E100F101010D8B477EF57F079EF57C0
:10AEED00F091EF57F0148091EF57F0D890013602A2
:10AEFD00360336043617AE86EF57F088EF57F089D4
:10AF0D00EF57F00180D890143615361636173612D5
:10AF1D0006D8A0130603AE96EF57F098EF57F07CC6
:10AF2D00EF57F0000E196E17AE9FEF57F0A1EF57C8
:10AF3D00F0C5EF57F0FF0E1414096EFF0E15140A2D
:10AF4D006EFF0E16140B6E7F0E17140C6E09500A41
:10AF5D00100B100C10D8B4B6EF57F0B8EF57F0BC7B
:10AF6D00EF57F0010E196EC5EF57F001A0C1EF5765
:10AF7D00F0C3EF57F0C5EF57F0B8EF57F01950D8B1
:10AF8D00B4CBEF57F0CDEF57F0F1EF57F0010E01C5
:10AF9D0026000E02220322042204A0D8EF57F0DA75
:10AFAD00EF57F0F1EF57F001C009F002C00AF003BE
:10AFBD00C00BF004C00CF00C340C320B320A320909
:10AFCD003209C001F00AC002F00BC003F00CC0043E
:10AFDD00F0124A132A13BEFCEF57F0135008E1127A
:10AFED0028D8A0FCEF57F0FEEF57F009EF58F0000E
:10AFFD000E136E1268000E016E000E026E000E032F
:10B00D006E000E046E13BE16EF58F0135006E112CB
:10B01D0004D8B014EF58F016EF58F024EF58F000A4
:10B02D000E136E000E126E000E016E000E026E00FB
:10B03D000E036E000E046E000E116E12C018F01885
:10B04D00A02BEF58F02DEF58F030EF58F0038E3164
:10B05D00EF58F0039ED8901830046EE7EF56F012BB
:10B06D00000450800B0D6E04500424136E03AE4289
:10B07D00EF58F044EF58F045EF58F013801350D8C7
:10B08D00B44BEF58F04DEF58F060EF58F01328D84F
:10B09D00A453EF58F055EF58F05DEF58F0000E0146
:10B0AD006E000E026E000E036E000E046E038E68AF
:10B0BD00EF58F0000E016E000E026E000E036E00D2
:10B0CD000E046E0850800B0D1A08500824126E07DE
:10B0DD00AE73EF58F075EF58F076EF58F01280120E
:10B0ED0050D8B47CEF58F07EEF58F091EF58F01235
:10B0FD0028D8A484EF58F086EF58F08EEF58F00062
:10B10D000E056E000E066E000E076E000E086E0721
:10B11D008E99EF58F0000E056E000E066E000E07AC
:10B12D006E000E086E1250D8B49FEF58F0A1EF5874
:10B13D00F0A9EF58F01350D8A4A7EF58F0A9EF5885
:10B14D00F0B3EF58F0000E016E000E026E000E030C
:10B15D006E000E046E4BEF5AF007500102F3CF183C
:10B16D00F0F4CF19F018500E6E0F6A106A116A19AB
:10B17D0050146E156A166A176A06500202F3CF183C
:10B18D00F0F4CF19F018500E26000E0F22102211D8
:10B19D002219501426000E152216221722055003CF
:10B1AD0002F3CF18F0F4CF19F018500E26000E0F41
:10B1BD00221022112219501426000E1522162217C4
:10B1CD002210C011F00FC010F00EC00FF00E6A0566
:10B1DD00500202F3CF18F0F4CF19F018500E2619C3
:10B1ED00500F22000E1022000E112206500102F304
:10B1FD00CF18F0F4CF19F018500E2619500F220069
:10B20D000E1022000E112210C011F00FC010F00E02
:10B21D00C00FF00E6A05500102F3CF18F0F4CF19EC
:10B22D00F018500E2619500F22000E1022000E118C
:10B23D002207500202F3CF18F0F4CF19F018501472
:10B24D002619501522000E1622000E172206500345
:10B25D0002F3CF18F0F4CF19F01850142619501529
:10B26D0022000E1622000E172207500302F3CF18EC
:10B27D00F0F4CF19F01850096E19500A6E0B6A0CC4
:10B28D006A0BC00CF00AC00BF009C00AF0096A097C
:10B29D005014260A5015220B5016220C5017220E50
:10B2AD00C009F00FC00AF010C00BF011C00CF0195E
:10B2BD000E66EF59F0D8900C320B320A320932E893
:10B2CD002E61EF59F0095014260A5015220B501615
:10B2DD00220C50172210C011F00FC010F00EC00F2D
:10B2ED00F00E6A125013C009F00A6A0926000E0A00
:10B2FD0022820E0924186EFF0E0A20196E9CEF593A
:10B30D00F0D890143615361636173611AE91EF5912
:10B31D00F093EF59F094EF59F01480D8900E360F4A
:10B32D0036103611361806D8A0190616AEA1EF59EB
:10B33D00F0A3EF59F087EF59F0000E126E11AEAA7F
:10B34D00EF59F0ACEF59F0D0EF59F0FF0E0E140994
:10B35D006EFF0E0F140A6EFF0E10140B6E7F0E1182
:10B36D00140C6E09500A100B100C10D8B4C1EF5903
:10B37D00F0C3EF59F0C7EF59F0010E126ED0EF592F
:10B38D00F014A0CCEF59F0CEEF59F0D0EF59F0C337
:10B39D00EF59F01250D8B4D6EF59F0D8EF59F0FC60
:10B3AD00EF59F0010E1426000E1522162217221742
:10B3BD00A0E3EF59F0E5EF59F0FCEF59F014C00997
:10B3CD00F015C00AF016C00BF017C00CF00C340CC1
:10B3DD00320B320A32093209C014F00AC015F00BD3
:10B3ED00C016F00CC017F0184A192A19BE07EF5AEB
:10B3FD00F0195008E11828D8A007EF5AF009EF5AB4
:10B40D00F013EF5AF0000E146E000E156E800E162E
:10B41D006E7F0E176E41EF5AF019BE20EF5AF019DC
:10B42D005006E11804D8B01EEF5AF020EF5AF02C58
:10B43D00EF5AF0000E146E000E156E000E166E0013
:10B44D000E176E000E0D6E41EF5AF018C013F0FF7F
:10B45D000E1416FF0E15167F0E1616000E17161368
:10B46D00A03BEF5AF03DEF5AF03EEF5AF0168ED852
:10B47D00901330176E0D50171214C001F015C00245
:10B48D00F016C003F017C004F012002F0E016E006D
:10B49D000E026E000E046E000E036E000E066E029E
:10B4AD000E056E01EC4BF026502710D8A461EF5A13
:10B4BD00F063EF5AF066EF5AF0020E93EF5CF02056
:10B4CD00EE65F02650D9262750DA22DE04D8B47264
:10B4DD00EF5AF074EF5AF077EF5AF0030E93EF5CDA
:10B4ED00F0120E28607DEF5AF07FEF5AF081EF5A7F
:10B4FD00F073EF5CF0040E93EF5CF026C01FF027A5
:10B50D00C020F0000E226E000E216E2F0E236E0055
:10B51D000E246E020E256EA5EC3EF00001FB6FFBB6
:10B52D0051D8B49CEF5AF09EEF5AF0ABEF5AF0267B
:10B53D00C001F027C002F0030E036EFF0E046EDE95
:10B54D00EC39F0010E93EF5CF02F5030C02AF02B48
:10B55D006A2AC02BF02A6A2A10316E2B50326E07E0
:10B56D000E2864BCEF5AF0BEEF5AF012EF5BF028D4
:10B57D0050FE0F286E28C02AF0010E2B6E000E2CE7
:10B58D006E2A2ACDEF5AF0D8902B362C362A2ECA99
:10B59D00EF5AF02B1C2D6E2C1C2E6E2D5031162EAD
:10B5AD0050321628C02AF029502B6E2C6A2A2AE315
:10B5BD00EF5AF0D8902B362C362A2EE0EF5AF02B7E
:10B5CD005031122C50321231C02FF03250306E26C5
:10B5DD00C01FF027C020F0000E216E2F0E226E002E
:10B5ED000E236E020E246E75EC3EF00001FB6FFB18
:10B5FD0051D8B404EF5BF006EF5BF092EF5CF026F0
:10B60D00C001F027C002F0DC0E036EFE0E046EDEEC
:10B61D00EC39F0A8EF5AF028C02AF0010E2B6E007D
:10B62D000E2C6E2A2A1EEF5BF0D8902B362C362A64
:10B63D002E1BEF5BF02B1C2D6E2C1C2E6E2D503106
:10B64D00162E50321628C02AF029502B6E2C6A2A3D
:10B65D002A34EF5BF0D8902B362C362A2E31EF5B47
:10B66D00F02B5031122C50321226C01FF027C02063
:10B67D00F0000E216E310E226E000E236E020E248E
:10B68D006E75EC3EF00001FB6FFB51D8B451EF5BD2
:10B69D00F053EF5BF092EF5CF026C001F027C00293
:10B6AD00F0DC0E036EFE0E046EDEEC39F0A8EF5AE0
:10B6BD00F0070E286465EF5BF067EF5BF073EF5BEF
:10B6CD00F026C001F027C002F0010E036EFE0E043D
:10B6DD006EDEEC39F081EF5AF026C01FF027C02046
:10B6ED00F0000E226E000E216E2F0E236E000E2422
:10B6FD006E010E256EA5EC3EF00001FB6FFB51D8DF
:10B70D00B48BEF5BF08DEF5BF099EF5BF026C00132
:10B71D00F027C002F0030E036EFF0E046EDEEC394F
:10B72D00F0A8EF5AF02FC031F0326A28C02AF0018C
:10B73D000E2B6E000E2C6E2A2AA8EF5BF0D8902BE4
:10B74D00362C362A2EA5EF5BF02B1C2D6E2C1C2EC5
:10B75D006E2D5031162E50321628C02AF029502B3E
:10B76D006E2C6A2A2ABEEF5BF0D8902B362C362A27
:10B77D002EBBEF5BF02B5031122C50321226C01F16
:10B78D00F027C020F0000E216E310E226E000E2328
:10B79D006E010E246E75EC3EF00001FB6FFB51D86F
:10B7AD00B4DBEF5BF0DDEF5BF092EF5CF026C001F8
:10B7BD00F027C002F0DC0E036EFE0E046EDEEC39D7
:10B7CD00F0A8EF5AF0070E2864EFEF5BF0F1EF5B96
:10B7DD00F0FDEF5BF026C001F027C002F01C0E0358
:10B7ED006EFE0E046EDEEC39F081EF5AF026C01FAE
:10B7FD00F027C020F0000E226E000E216E2F0E23BA
:10B80D006E000E246E010E256EA5EC3EF00001FBC0
:10B81D006FFB51D8B415EF5CF017EF5CF023EF5CC4
:10B82D00F026C001F027C002F0030E036EFF0E04D8
:10B83D006EDEEC39F0A8EF5AF02FC031F0326A28E5
:10B84D00C02AF0010E2B6E000E2C6E2A2A32EF5CF0
:10B85D00F0D8902B362C362A2E2FEF5CF02B1C2D8A
:10B86D006E2C1C2E6E2D5031162E50321628C02ADD
:10B87D00F029502B6E2C6A2A2A48EF5CF0D8902BB9
:10B88D00362C362A2E45EF5CF02B5031122C5032CF
:10B89D001226C01FF027C020F0000E216E310E229F
:10B8AD006E000E236E010E246E75EC3EF00001FB52
:10B8BD006FFB51D8B465EF5CF067EF5CF092EF5C15
:10B8CD00F026C001F027C002F0DC0E036EFE0E0460
:10B8DD006EDEEC39F0A8EF5AF020EE63F02650D969
:10B8ED00262750DA22DF502A6E2B6A2B50000AD8F9
:10B8FD00B483EF5CF0A8EF5AF02A50000AD8B4E9EF
:10B90D00EF5BF0010AD8B45FEF5BF0030AD8B484A3
:10B91D00EF5AF0A8EF5AF0000E12000450800B0DF4
:10B92D006E045004240F6E03AE9FEF5CF0A1EF5C2C
:10B93D00F0A2EF5CF00F800F50D8B4A8EF5CF0AA26
:10B94D00EF5CF0BFEF5CF00F28D8A4B0EF5CF0B265
:10B95D00EF5CF0BAEF5CF0000E016E000E026E00AF
:10B96D000E036E000E046E038E000E046EC7EF5CA8
:10B97D00F0000E016E000E026E000E036E000E043E
:10B98D006E0850800B0E6E0D500E18D8B4D1EF5CB2
:10B99D00F0D3EF5CF0D4EF5CF00D8C085008240E62
:10B9AD006E07AEDCEF5CF0DEEF5CF0DFEF5CF00E0F
:10B9BD00800E50D8B4E5EF5CF0E7EF5CF0FCEF5C87
:10B9CD00F00E28D8A4EDEF5CF0EFEF5CF0F7EF5C34
:10B9DD00F0000E056E000E066E000E076E000E08CE
:10B9ED006E078E000E086E04EF5DF0000E056E0002
:10B9FD000E066E000E076E000E086E0F500E5CD810
:10BA0D00B00BEF5DF00DEF5DF034EF5DF00DAC12AE
:10BA1D00EF5DF014EF5DF016EF5DF0800E0D1A0F77
:10BA2D00C010F00EC00FF010C00EF001C010F005E8
:10BA3D00C001F010C005F002C010F006C002F010F9
:10BA4D00C006F003C010F007C003F010C007F004EB
:10BA5D00C010F008C004F010C008F0000E106E0FFA
:10BA6D00500EC009F00A6A095E000E0A5A0ABE4954
:10BA7D00EF5DF00A5009E11A0E095CD8A049EF5D9F
:10BA8D00F04BEF5DF082EF5DF001500210031004FA
:10BA9D0010D8A454EF5DF057EF5DF0010E58EF5D37
:10BAAD00F0000E106E000E016E000E026E000E0301
:10BABD006E000E046E0EC00FF08BEF5DF010A06ADD
:10BACD00EF5DF06CEF5DF072EF5DF0D8901030012E
:10BADD0009106E74EF5DF0D890103201A079EF5D12
:10BAED00F07BEF5DF07CEF5DF0108E0434043203DB
:10BAFD0032023201320F2A0E500F5CD8A089EF5D51
:10BB0D00F08BEF5DF065EF5DF00DBC90EF5DF092A9
:10BB1D00EF5DF0D2EF5DF00F50D8A498EF5DF09A85
:10BB2D00EF5DF0A4EF5DF0000E016E000E026E00F1
:10BB3D000E036E000E046EF3EF5EF0055001260647
:10BB4D00500222075003220850042204A0B1EF5DD9
:10BB5D00F0B3EF5DF05FEF5EF010A0B8EF5DF0BAFF
:10BB6D00EF5DF0C0EF5DF0D89010300109106EC29E
:10BB7D00EF5DF0D890103201A0C7EF5DF0C9EF5D19
:10BB8D00F0CAEF5DF0108E0434043203320232013C
:10BB9D00320F2A5FEF5EF00550015C065002580728
:10BBAD005003580450800A096E0850800A0958D86D
:10BBBD00B0E3EF5DF0E5EF5DF010EF5EF0015005E5
:10BBCD005C096E025006580A6E035007580B6E043E
:10BBDD005008580C6EFF0E0924016EFF0E0A20024C
:10BBED006EFF0E0B20036EFF0E0C20046E800E0DEB
:10BBFD001A106C1050D8A406EF5EF008EF5EF01826
:10BC0D00EF5EF0010E0126000E022203220422181F
:10BC1D00EF5EF00550015E0650025A0750035A08B8
:10BC2D0050045A0150021003100410D8A421EF5EE5
:10BC3D00F023EF5EF058EF5EF01050D8A429EF5EC0
:10BC4D00F02BEF5EF058EF5EF0000E016E000E026D
:10BC5D006E000E036E000E046EF3EF5EF0D89001D1
:10BC6D003602360336043610AE3FEF5EF041EF5E1E
:10BC7D00F042EF5EF0018010A047EF5EF049EF5EFD
:10BC8D00F04DEF5EF0D88010364FEF5EF0D890108B
:10BC9D00360F50D8B455EF5EF057EF5EF058EF5EAB
:10BCAD00F00F0603AE5DEF5EF05FEF5EF035EF5E19
:10BCBD00F0000E0E6E10AE66EF5EF068EF5EF08077
:10BCCD00EF5EF010C009F07F0E0916D8B471EF5E6B
:10BCDD00F073EF5EF077EF5EF0010E0E6E80EF5EAB
:10BCED00F001A07CEF5EF07EEF5EF080EF5EF07312
:10BCFD00EF5EF00E50D8B486EF5EF088EF5EF0B3D5
:10BD0D00EF5EF0010E0126000E0222032204220432
:10BD1D00A093EF5EF095EF5EF0B3EF5EF001C0091A
:10BD2D00F002C00AF003C00BF004C00CF00C340C90
:10BD3D00320B320A32093209C001F00AC002F00B8F
:10BD4D00C003F00CC004F00F28D8B4B0EF5EF0B211
:10BD5D00EF5EF0B3EF5EF00F2A0F28D8B4B9EF5EA7
:10BD6D00F0BBEF5EF0C3EF5EF00F50D8A4C1EF5EF5
:10BD7D00F0C3EF5EF0D5EF5EF0000E016E000E0227
:10BD8D006E000E036E000E046E0F50D8A4D1EF5E40
:10BD9D00F0D3EF5EF0D5EF5EF0000E0D6E0FA0DA72
:10BDAD00EF5EF0DCEF5EF0DFEF5EF0038EE0EF5E56
:10BDBD00F0039ED8900F30046E0DAEE8EF5EF0EA02
:10BDCD00EF5EF0EBEF5EF0048E01C001F002C002F9
:10BDDD00F003C003F004C004F01200000E00017760
:10BDED006F000E766F3CC086F03DC087F03EC08878
:10BDFD00F03FC089F089BF08EF5FF006EF5FF01EDE
:10BE0D00EF5FF0000E776F010E766F86C001F08741
:10BE1D00C002F088C003F089C004F0EEEC3BF001E5
:10BE2D00C086F002C087F003C088F004C089F0001E
:10BE3D000E0001916F000E906FEFC078F0F0C07999
:10BE4D00F076517711D8A42EEF5FF030EF5FF03719
:10BE5D00EF5FF0F3A535EF5FF037EF5FF051EF5F78
:10BE6D00F076517711D8A43EEF5FF040EF5FF046CA
:10BE7D00EF5FF0000E656F2B0E646F4AEF5FF00001
:10BE8D000E656F2D0E646F64C08EF2904B912B7802
:10BE9D0007D8A079078E0E9025D96E020E9121DA62
:10BEAD006E300EDF6E904B912BBF0E416EFF0E422A
:10BEBD006E4050436E446A415043264250442244E2
:10BECD005009E11A0E435CD8A06FEF5FF071EF5F80
:10BEDD00F077EF5FF0000E676F780E666F7BEF5FA8
:10BEED00F0000E676F580E666F8E0E9025D96E029C
:10BEFD000E9121DA6E66C0DFFF904B912B86C0014B
:10BF0D00F087C002F088C003F089C004F0E9EC4569
:10BF1D00F001040210D8A496EF5FF098EF5FF0E304
:10BF2D00EF5FF0BF0E416EFF0E426E4050436E4408
:10BF3D006A4150432642504422445007E11A0E43B1
:10BF4D005CD8B0ACEF5FF0AEEF5FF0BDEF5FF08EA1
:10BF5D000E00019025016E020E9121026E570E0307
:10BF6D006EFF0E046E47EC3EF0CAEF5FF08E0E00D2
:10BF7D00019025016E020E9121026E6F0E036EFF70
:10BF8D000E046E47EC3EF00001FD0E7827FF0E7992
:10BF9D00233AC011F03BC012F08E0E136E020E1438
:10BFAD006E78C015F079C016F071EC43F011C03AFF
:10BFBD00F012C03BF064EF64F086C001F087C00260
:10BFCD00F088C003F089C004F0E9EC45F00150029F
:10BFDD0010D8A4F4EF5FF0F6EF5FF02AEF60F0BF3A
:10BFED000E416EFF0E426E4050436E446A41504307
:10BFFD002642504422445007E11A0E435CD8B00A41
:10C00D00EF60F00CEF60F01BEF60F08E0E00019012
:10C01D0025016E020E9121026E5B0E036EFF0E0462
:10C02D006E47EC3EF0CAEF5FF08E0E0001902501D9
:10C03D006E020E9121026E7B0E036EFF0E046E4793
:10C04D00EC3EF0CAEF5FF0000E00018C6F000E8D1C
:10C05D006F800E8E6F3F0E8F6F000E7B6F000E7A0E
:10C06D006F86C001F087C002F088C003F089C0045C
:10C07D00F0000E056E000E066E000E076E000E0827
:10C08D006E62EC42F0D8B04EEF60F050EF60F0D33E
:10C09D00EF60F06FEF60F08CC001F08DC002F08E9C
:10C0AD00C003F08FC004F0000E056E000E066E008A
:10C0BD000E076E400E086E37EC58F001C08CF00282
:10C0CD00C08DF003C08EF004C08FF000017A4B7B61
:10C0DD002B86C01AF087C01BF088C01CF089C01DCC
:10C0ED00F0000E056E000E066E000E076E400E0877
:10C0FD006E8CC001F08DC002F08EC003F08FC004B5
:10C10D00F037EC58F001C01EF002C01FF003C02044
:10C11D00F004C021F068EC46F0D8B098EF60F09ACA
:10C12D00EF60F052EF60F0BAEF60F08CC001F08D6F
:10C13D00C002F08EC003F08FC004F0000E056E003B
:10C14D000E066E000E076E400E086E6AEC56F0017C
:10C15D00C08CF002C08DF003C08EF004C08FF000D3
:10C16D00017A07D8A07B0786C01AF087C01BF0881C
:10C17D00C01CF089C01DF08CC01EF08DC01FF08E4C
:10C18D00C020F08FC021F068EC46F0D8A0D1EF6050
:10C19D00F0D3EF60F09CEF60F00001F2BFD9EF60DB
:10C1AD00F0DBEF60F0E1EF60F0F1C074F0F2C0751C
:10C1BD00F0E5EF60F0000E756F060E746F010E74F2
:10C1CD00256E6F000E75216F6F000E856F000E844A
:10C1DD006F86C07CF087C07DF088C07EF089C07FFF
:10C1ED00F08CC060F08DC061F08EC062F08FC063C6
:10C1FD00F07CEF61F07CC001F07DC002F07EC003E9
:10C20D00F07FC004F08CC005F08DC006F08EC00725
:10C21D00F08FC008F06AEC56F001C01AF002C01B96
:10C22D00F003C01CF004C01DF017EC50F01AC080D4
:10C23D00F01BC081F01CC082F01DC083F080C01ABD
:10C24D00F081C01BF082C01CF083C01DF0EAEC46EB
:10C25D00F01AC08AF01BC08BF07CC032F07DC03369
:10C26D00F07EC034F07FC035F08CC005F08DC00677
:10C27D00F08EC007F08FC008F080C001F081C002C1
:10C28D00F082C003F083C004F037EC58F001C036E3
:10C29D00F002C037F003C038F004C039F087EC3D30
:10C2AD00F032C07CF033C07DF034C07EF035C07FFD
:10C2BD00F08CC001F08DC002F08EC003F08FC00471
:10C2CD00F0000E056E000E066E800E076E410E0814
:10C2DD006E6AEC56F001C08CF002C08DF003C08E7A
:10C2ED00F004C08FF00001844B852B6E51845D8569
:10C2FD0051800A416E6F51800A4158D8A089EF6173
:10C30D00F08BEF61F001EF61F08CC001F08DC00298
:10C31D00F08EC003F08FC004F0000E056E000E0607
:10C32D006E000E076E410E086E37EC58F001C0809E
:10C33D00F002C081F003C082F004C083F07CC01A0B
:10C34D00F07DC01BF07EC01CF07FC01DF080C01EB4
:10C35D00F081C01FF082C020F083C021F068EC4650
:10C36D00F0D8B0BCEF61F0BEEF61F0C9EF61F00045
:10C37D000E0001806F000E816F000E826F000E8324
:10C38D006FF2EF61F07CC001F07DC002F07EC00362
:10C39D00F07FC004F080C005F081C006F082C007B8
:10C3AD00F083C008F062EC42F0D8A0E0EF61F0E25B
:10C3BD00EF61F0F2EF61F000018AB1E8EF61F0EAB0
:10C3CD00EF61F0F2EF61F0000E806F000E816F00F3
:10C3DD000E826F000E836F86C001F087C002F08859
:10C3ED00C003F089C004F080C005F081C006F08262
:10C3FD00C007F083C008F094EC5CF001C07CF00243
:10C40D00C07DF003C07EF004C07FF060C08CF06191
:10C41D00C08DF062C08EF063C08FF0000E00017110
:10C42D006F000E706F000E736F000E726F000E6D49
:10C43D006F000E6C6F000E856F000E846F60EF63E2
:10C44D00F07CC001F07DC002F07EC003F07FC0041F
:10C45D00F08CC005F08DC006F08EC007F08FC008BF
:10C46D00F06AEC56F001C01AF002C01BF003C01CBC
:10C47D00F004C01DF017EC50F01AC080F01BC08105
:10C48D00F01CC082F01DC083F080C01AF081C01B6B
:10C49D00F082C01CF083C01DF0EAEC46F01AC08A91
:10C4AD00F01BC08BF00001F3B95FEF62F061EF623A
:10C4BD00F075EF62F08A518B11D8A468EF62F06AC3
:10C4CD00EF62F075EF62F071BF71EF62F06FEF62C6
:10C4DD00F075EF62F06C4B6D2B14EF63F0725173CE
:10C4ED0011D8A47CEF62F07EEF62F0A8EF62F071DC
:10C4FD00BF85EF62F083EF62F0A8EF62F08E0E90D1
:10C50D0025D96E020E9121DA6E2E0EDF6E904B91B3
:10C51D002B7807D8A07907000E736F010E726FA8E4
:10C52D00EF62F08E0E9025D96E020E9121DA6E30EB
:10C53D000EDF6E904B912B7807D8A079076C07D83A
:10C54D00A06D076C516D11D8A4AFEF62F0B1EF6221
:10C55D00F098EF62F08BBFBDEF62F08B5109E10AED
:10C56D000E8A5DD8A0BDEF62F0BFEF62F0C7EF623B
:10C57D00F0570E8A258A6F000E8B218B6FCDEF62DF
:10C58D00F0300E8A258A6F000E8B218B6FBF0E4106
:10C59D006EFF0E426E4050436E446A415043264238
:10C5AD00504422445007E11A0E435CD8B0E1EF62CB
:10C5BD00F0E3EF62F006EF63F09F0E416EFF0E4267
:10C5CD006E200E8A11436E000E8B11446E41504346
:10C5DD002642504422445007E11A0E435CD8B0FA6B
:10C5ED00EF62F0FCEF62F006EF63F08AC007F08BAC
:10C5FD00C008F042EC3DF007C08AF008C08BF08E09
:10C60D000E00019025D96E020E9121DA6E8AC0DFDF
:10C61D00FF904B912B7807D8A079077CC032F07D25
:10C62D00C033F07EC034F07FC035F08CC005F08D86
:10C63D00C006F08EC007F08FC008F080C001F081F9
:10C64D00C002F082C003F083C004F037EC58F00153
:10C65D00C036F002C037F003C038F004C039F0879F
:10C66D00EC3DF032C07CF033C07DF034C07EF0354F
:10C67D00C07FF08CC001F08DC002F08EC003F08F32
:10C68D00C004F0000E056E000E066E800E076E41A2
:10C69D000E086E6AEC56F001C08CF002C08DF003EE
:10C6AD00C08EF004C08FF000017007D8A071078410
:10C6BD004B852B6E51845D8551800A416E6F518083
:10C6CD000A4158D8B06DEF63F06FEF63F07DEF6303
:10C6DD00F091BF7BEF63F0915109E14B0E905DD866
:10C6ED00A07BEF63F07DEF63F027EF62F072517383
:10C6FD0011D8A484EF63F086EF63F097EF63F0F346
:10C70D00A98BEF63F08DEF63F097EF63F08E0E90D2
:10C71D0025D96E020E9121DA6E2E0EDF6E904B91A1
:10C72D002B8E0E9025D96E020E9121DA6E000EDF42
:10C73D006E000E856F4F0E846F8E0E8425D96E029E
:10C74D000E8521DA6E000EDF6E000E776F000E760D
:10C75D006F7BBFB6EF63F0B4EF63F0BEEF63F00035
:10C76D000E776F010E766F7A6D7B1FD8B07B2B0025
:10C77D000E756F010E746FEFEF63F08407D8A0850F
:10C78D00078E0E8425D96E020E8521DA6E7AC001D0
:10C79D00F07BC002F0000E046E0A0E036EB7EC4281
:10C7AD00F00150300FDF6E7AC001F07BC002F00057
:10C7BD000E046E0A0E036E0FEC43F001C07AF00208
:10C7CD00C07BF000017407D8A075077807D8A07951
:10C7DD00077A517B11D8A4F6EF63F0F8EF63F0C43C
:10C7ED00EF63F075BF05EF64F0755106E17405D880
:10C7FD00B003EF64F005EF64F0C4EF63F08407D885
:10C80D00A0850776517711D8A40FEF64F011EF646E
:10C81D00F017EF64F0000E696F2B0E686F1BEF645D
:10C82D00F0000E696F2D0E686F8E0E8425D96E0285
:10C83D000E8521DA6E68C0DFFF7807D8A0790784EE
:10C84D0007D8A08507BF0E416EFF0E426E405043C4
:10C85D006E446A4150432642504422445009E11A25
:10C86D000E435CD8A03DEF64F03FEF64F045EF64FC
:10C87D00F0000E6B6F700E6A6F49EF64F0000E6B77
:10C88D006F500E6A6F8E0E8425D96E020E8521DAD9
:10C89D006E6AC0DFFF7807D8A079078E0E9025014C
:10C8AD006E020E9121026E8E0E8425036E020E8590
:10C8BD0021046E47EC3EF0CFEF5FF01200000E004A
:10C8CD0001756F000E746F3CC086F03DC087F03E61
:10C8DD00C088F03FC089F089BF79EF64F077EF64CD
:10C8ED00F08FEF64F0000E756F010E746F86C0014E
:10C8FD00F087C002F088C003F089C004F0EEEC3B75
:10C90D00F001C086F002C087F003C088F004C08932
:10C91D00F0000E00018D6F000E8C6FEFC078F0F0FF
:10C92D00C079F074517511D8A49FEF64F0A1EF6434
:10C93D00F0A8EF64F0F3A5A6EF64F0A8EF64F0C2E1
:10C94D00EF64F074517511D8A4AFEF64F0B1EF64DA
:10C95D00F0B7EF64F0000E616F2B0E606FBBEF64EC
:10C96D00F0000E616F2D0E606F60C08EF28C4B8DDE
:10C97D002B7807D8A0790786C001F087C002F08810
:10C98D00C003F089C004F0E9EC45F001040210D8B1
:10C99D00A4D3EF64F0D5EF64F020EF65F0BF0E4146
:10C9AD006EFF0E426E4050436E446A415043264224
:10C9BD00504422445007E11A0E435CD8B0E9EF64AD
:10C9CD00F0EBEF64F0FAEF64F08E0E00018C2501B0
:10C9DD006E020E8D21026E570E036EFF0E046E4712
:10C9ED00EC3EF007EF65F08E0E00018C25016E0216
:10C9FD000E8D21026E6F0E036EFF0E046E47EC3E20
:10CA0D00F00001FD0E7827FF0E79233AC011F03B9F
:10CA1D00C012F08E0E136E020E146E78C015F079E2
:10CA2D00C016F071EC43F011C03AF012C03BF06B40
:10CA3D00EF6AF086C001F087C002F088C003F0896C
:10CA4D00C004F0E9EC45F001500210D8A431EF65B7
:10CA5D00F033EF65F067EF65F0BF0E416EFF0E42EC
:10CA6D006E4050436E446A41504326425044224426
:10CA7D005007E11A0E435CD8B047EF65F049EF65FA
:10CA8D00F058EF65F08E0E00018C25016E020E8DB3
:10CA9D0021026E5B0E036EFF0E046E47EC3EF00737
:10CAAD00EF65F08E0E00018C25016E020E8D2102B8
:10CABD006E7B0E036EFF0E046E47EC3EF007EF65C6
:10CACD00F0000E00018E6F000E8F6F800E906F3F85
:10CADD000E916F000E8B6F000E8A6F86C001F0876E
:10CAED00C002F088C003F089C004F0000E056E008E
:10CAFD000E066E000E076E000E086E62EC42F0D848
:10CB0D00B08BEF65F08DEF65F010EF66F0ACEF6573
:10CB1D00F08EC001F08FC002F090C003F091C00400
:10CB2D00F0000E056E000E066E200E076E410E080B
:10CB3D006E37EC58F001C08EF002C08FF003C0903C
:10CB4D00F004C091F000018A4B8B2B86C01AF08740
:10CB5D00C01BF088C01CF089C01DF0000E056E00D2
:10CB6D000E066E200E076E410E086E8EC001F08F00
:10CB7D00C002F090C003F091C004F037EC58F00102
:10CB8D00C01EF002C01FF003C020F004C021F068E9
:10CB9D00EC46F0D8B0D5EF65F0D7EF65F08FEF65C7
:10CBAD00F0F7EF65F08EC001F08FC002F090C0037A
:10CBBD00F091C004F0000E056E000E066E200E07FB
:10CBCD006E410E086E6AEC56F001C08EF002C08FF9
:10CBDD00F003C090F004C091F000018A07D8A08B3B
:10CBED000786C01AF087C01BF088C01CF089C01DD5
:10CBFD00F08EC01EF08FC01FF090C020F091C021AC
:10CC0D00F068EC46F0D8A00EEF66F010EF66F0D9A4
:10CC1D00EF65F040C007F0086AAAEC3DF007500040
:10CC2D00017B6F7BC07AF0670E7B19D8A421EF666C
:10CC3D00F023EF66F049EF66F0F151F211D8A42A16
:10CC4D00EF66F02CEF66F030EF66F0000EF26F013C
:10CC5D000EF16FF2BF3DEF66F0F25106E1F105D82E
:10CC6D00B03BEF66F03DEF66F043EF66F0000E77F8
:10CC7D006F060E766F52EF66F0F1C076F0F2C07768
:10CC8D00F052EF66F0F2BF4EEF66F050EF66F03DFA
:10CC9D00EF66F043EF66F0670E7B19D8A459EF6687
:10CCAD00F05BEF66F08AEF66F08BAF69EF66F0FC34
:10CCBD000E8A5DFF0E8B59D8A067EF66F069EF669F
:10CCCD00F088EF66F0FF0E416EFF0E426E76C043A8
:10CCDD00F077C044F041504326425044228A5143DC
:10CCED005C4450800A456E8B51800A4558D8A0820D
:10CCFD00EF66F084EF66F088EF66F0660E7A6F8A65
:10CD0D00EF66F0650E7A6F76C06CF077C06DF067E8
:10CD1D000E7B19D8A495EF66F097EF66F0A7EF6636
:10CD2D00F0660E7A19D8A49EEF66F0A0EF66F0A912
:10CD3D00EF66F08BBFA7EF66F0A5EF66F0A9EF6683
:10CD4D00F06C4B6D2B660E7A19D8A4B0EF66F0B26D
:10CD5D00EF66F0D2EF66F08BBFB9EF66F0B7EF6616
:10CD6D00F0C5EF66F0000E8E6F000E8F6F800E9087
:10CD7D006F3F0E916F000E8B6F000E8A6F670E7BEB
:10CD8D0019D8B4CCEF66F0CEEF66F0D2EF66F08A2C
:10CD9D00516C278B516D23000E856F000E846F86AD
:10CDAD00C07CF087C07DF088C07EF089C07FF08E9A
:10CDBD00C06EF08FC06FF090C070F091C071F063D5
:10CDCD00EF67F07CC001F07DC002F07EC003F07F04
:10CDDD00C004F08EC005F08FC006F090C007F09132
:10CDED00C008F06AEC56F001C01AF002C01BF00347
:10CDFD00C01CF004C01DF017EC50F01AC080F01BE1
:10CE0D00C081F01CC082F01DC083F080C01AF0817B
:10CE1D00C01BF082C01CF083C01DF0EAEC46F01A76
:10CE2D00C072F01BC073F07CC032F07DC033F07E59
:10CE3D00C034F07FC035F08EC005F08FC006F09085
:10CE4D00C007F091C008F080C001F081C002F082EF
:10CE5D00C003F083C004F037EC58F001C036F00287
:10CE6D00C037F003C038F004C039F087EC3DF03224
:10CE7D00C07CF033C07DF034C07EF035C07FF08EC5
:10CE8D00C001F08FC002F090C003F091C004F0001B
